{
  "contractName": "ProductIdentification",
  "abi": [
    {
      "inputs": [],
      "stateMutability": "payable",
      "type": "constructor",
      "payable": true
    },
    {
      "inputs": [
        {
          "internalType": "address",
          "name": "",
          "type": "address"
        }
      ],
      "name": "balance",
      "outputs": [
        {
          "internalType": "uint256",
          "name": "",
          "type": "uint256"
        }
      ],
      "stateMutability": "view",
      "type": "function",
      "constant": true
    },
    {
      "inputs": [],
      "name": "owner",
      "outputs": [
        {
          "internalType": "address",
          "name": "",
          "type": "address"
        }
      ],
      "stateMutability": "view",
      "type": "function",
      "constant": true
    },
    {
      "inputs": [
        {
          "internalType": "address",
          "name": "mAddress",
          "type": "address"
        },
        {
          "internalType": "string",
          "name": "cName",
          "type": "string"
        },
        {
          "internalType": "string",
          "name": "cLocation",
          "type": "string"
        }
      ],
      "name": "createManufacturer",
      "outputs": [
        {
          "internalType": "uint256",
          "name": "",
          "type": "uint256"
        }
      ],
      "stateMutability": "nonpayable",
      "type": "function"
    },
    {
      "inputs": [
        {
          "internalType": "string",
          "name": "_name",
          "type": "string"
        },
        {
          "internalType": "string",
          "name": "_desc",
          "type": "string"
        },
        {
          "internalType": "uint256",
          "name": "_price",
          "type": "uint256"
        }
      ],
      "name": "createProduct",
      "outputs": [
        {
          "internalType": "uint256",
          "name": "",
          "type": "uint256"
        }
      ],
      "stateMutability": "nonpayable",
      "type": "function"
    },
    {
      "inputs": [
        {
          "internalType": "uint256",
          "name": "_id",
          "type": "uint256"
        },
        {
          "internalType": "address",
          "name": "_newOwner",
          "type": "address"
        }
      ],
      "name": "changeOwner",
      "outputs": [
        {
          "internalType": "string",
          "name": "feedback",
          "type": "string"
        }
      ],
      "stateMutability": "nonpayable",
      "type": "function"
    },
    {
      "inputs": [
        {
          "internalType": "uint256",
          "name": "_id",
          "type": "uint256"
        }
      ],
      "name": "getOwner",
      "outputs": [
        {
          "internalType": "address",
          "name": "temp",
          "type": "address"
        }
      ],
      "stateMutability": "view",
      "type": "function",
      "constant": true
    },
    {
      "inputs": [
        {
          "internalType": "uint256",
          "name": "_id",
          "type": "uint256"
        }
      ],
      "name": "verifyProduct",
      "outputs": [
        {
          "internalType": "string",
          "name": "ver",
          "type": "string"
        },
        {
          "internalType": "address",
          "name": "currentOwner",
          "type": "address"
        },
        {
          "internalType": "address[]",
          "name": "owners",
          "type": "address[]"
        }
      ],
      "stateMutability": "payable",
      "type": "function",
      "payable": true
    },
    {
      "inputs": [
        {
          "internalType": "uint256",
          "name": "_id",
          "type": "uint256"
        }
      ],
      "name": "getProductDetails",
      "outputs": [
        {
          "components": [
            {
              "internalType": "uint256",
              "name": "productID",
              "type": "uint256"
            },
            {
              "internalType": "string",
              "name": "productName",
              "type": "string"
            },
            {
              "internalType": "string",
              "name": "pDescription",
              "type": "string"
            },
            {
              "internalType": "uint256",
              "name": "price",
              "type": "uint256"
            },
            {
              "internalType": "address",
              "name": "currentOwner",
              "type": "address"
            },
            {
              "internalType": "address[]",
              "name": "ownersList",
              "type": "address[]"
            },
            {
              "internalType": "address",
              "name": "manufactur",
              "type": "address"
            }
          ],
          "internalType": "struct ProductIdentification.product",
          "name": "pDetails",
          "type": "tuple"
        }
      ],
      "stateMutability": "view",
      "type": "function",
      "constant": true
    },
    {
      "inputs": [
        {
          "internalType": "address",
          "name": "_id",
          "type": "address"
        }
      ],
      "name": "getManufacturerDetails",
      "outputs": [
        {
          "components": [
            {
              "internalType": "address",
              "name": "mID",
              "type": "address"
            },
            {
              "internalType": "string",
              "name": "companyName",
              "type": "string"
            },
            {
              "internalType": "string",
              "name": "companyLocation",
              "type": "string"
            }
          ],
          "internalType": "struct ProductIdentification.manufacturer",
          "name": "mDetails",
          "type": "tuple"
        }
      ],
      "stateMutability": "view",
      "type": "function",
      "constant": true
    },
    {
      "inputs": [
        {
          "internalType": "uint256",
          "name": "_id",
          "type": "uint256"
        }
      ],
      "name": "getOwnerList",
      "outputs": [
        {
          "internalType": "address[]",
          "name": "owners",
          "type": "address[]"
        }
      ],
      "stateMutability": "view",
      "type": "function",
      "constant": true
    },
    {
      "inputs": [
        {
          "internalType": "address",
          "name": "_whoIs",
          "type": "address"
        }
      ],
      "name": "getIdentity",
      "outputs": [
        {
          "internalType": "string",
          "name": "identity",
          "type": "string"
        }
      ],
      "stateMutability": "view",
      "type": "function",
      "constant": true
    },
    {
      "inputs": [],
      "name": "getBalance",
      "outputs": [
        {
          "internalType": "uint256",
          "name": "",
          "type": "uint256"
        }
      ],
      "stateMutability": "view",
      "type": "function",
      "constant": true
    },
    {
      "inputs": [
        {
          "internalType": "address",
          "name": "whoIs",
          "type": "address"
        }
      ],
      "name": "getProductByAddress",
      "outputs": [
        {
          "components": [
            {
              "internalType": "uint256",
              "name": "productID",
              "type": "uint256"
            },
            {
              "internalType": "string",
              "name": "productName",
              "type": "string"
            },
            {
              "internalType": "string",
              "name": "pDescription",
              "type": "string"
            },
            {
              "internalType": "uint256",
              "name": "price",
              "type": "uint256"
            },
            {
              "internalType": "address",
              "name": "currentOwner",
              "type": "address"
            },
            {
              "internalType": "address[]",
              "name": "ownersList",
              "type": "address[]"
            },
            {
              "internalType": "address",
              "name": "manufactur",
              "type": "address"
            }
          ],
          "internalType": "struct ProductIdentification.product[]",
          "name": "output",
          "type": "tuple[]"
        }
      ],
      "stateMutability": "payable",
      "type": "function",
      "payable": true
    },
    {
      "inputs": [
        {
          "internalType": "address",
          "name": "whoIs",
          "type": "address"
        }
      ],
      "name": "getOldProductByUser",
      "outputs": [
        {
          "components": [
            {
              "internalType": "uint256",
              "name": "productID",
              "type": "uint256"
            },
            {
              "internalType": "string",
              "name": "productName",
              "type": "string"
            },
            {
              "internalType": "string",
              "name": "pDescription",
              "type": "string"
            },
            {
              "internalType": "uint256",
              "name": "price",
              "type": "uint256"
            },
            {
              "internalType": "address",
              "name": "currentOwner",
              "type": "address"
            },
            {
              "internalType": "address[]",
              "name": "ownersList",
              "type": "address[]"
            },
            {
              "internalType": "address",
              "name": "manufactur",
              "type": "address"
            }
          ],
          "internalType": "struct ProductIdentification.product[]",
          "name": "soldProducts",
          "type": "tuple[]"
        }
      ],
      "stateMutability": "payable",
      "type": "function",
      "payable": true
    }
  ],
  "bytecode": "0x60806040526000600755336000806101000a81548173ffffffffffffffffffffffffffffffffffffffff021916908373ffffffffffffffffffffffffffffffffffffffff16021790555034600160008060009054906101000a900473ffffffffffffffffffffffffffffffffffffffff1673ffffffffffffffffffffffffffffffffffffffff1673ffffffffffffffffffffffffffffffffffffffff168152602001908152602001600020819055506139f3806100bd6000396000f3fe6080604052600436106100dd5760003560e01c8063784796f71161007f578063a142220911610059578063a1422209146102fb578063c3c7fd5a14610338578063c41a360a14610375578063e3d670d7146103b2576100dd565b8063784796f7146102565780638da5cb5b146102935780638dd95e99146102be576100dd565b8063524e8462116100bb578063524e8462146101875780635f0d382a146101b95780636447edf5146101e95780636813b53b14610219576100dd565b806312065fe0146100e257806322713cc71461010d5780632fea7b811461014a575b600080fd5b3480156100ee57600080fd5b506100f76103ef565b604051610104919061289c565b60405180910390f35b34801561011957600080fd5b50610134600480360381019061012f9190612929565b610457565b6040516101419190612a4c565b60405180910390f35b34801561015657600080fd5b50610171600480360381019061016c9190612929565b6106b0565b60405161017e9190612ab8565b60405180910390f35b6101a1600480360381019061019c9190612b06565b610867565b6040516101b093929190612bf1565b60405180910390f35b6101d360048036038101906101ce9190612929565b610b7f565b6040516101e09190612e20565b60405180910390f35b61020360048036038101906101fe9190612929565b61154c565b6040516102109190612e20565b60405180910390f35b34801561022557600080fd5b50610240600480360381019061023b9190612b06565b611a91565b60405161024d9190612eec565b60405180910390f35b34801561026257600080fd5b5061027d60048036038101906102789190612f0e565b611d96565b60405161028a9190612ab8565b60405180910390f35b34801561029f57600080fd5b506102a8611fb6565b6040516102b59190612f4e565b60405180910390f35b3480156102ca57600080fd5b506102e560048036038101906102e09190612b06565b611fda565b6040516102f29190612f69565b60405180910390f35b34801561030757600080fd5b50610322600480360381019061031d91906130c0565b6120e4565b60405161032f919061289c565b60405180910390f35b34801561034457600080fd5b5061035f600480360381019061035a919061314b565b6123b5565b60405161036c919061289c565b60405180910390f35b34801561038157600080fd5b5061039c60048036038101906103979190612b06565b61262f565b6040516103a99190612f4e565b60405180910390f35b3480156103be57600080fd5b506103d960048036038101906103d49190612929565b6126d2565b6040516103e6919061289c565b60405180910390f35b6000600160008060009054906101000a900473ffffffffffffffffffffffffffffffffffffffff1673ffffffffffffffffffffffffffffffffffffffff1673ffffffffffffffffffffffffffffffffffffffff16815260200190815260200160002054905090565b61045f6126ea565b60005b6006805490508110156106a95760068181548110610483576104826131d6565b5b906000526020600020906003020160000160009054906101000a900473ffffffffffffffffffffffffffffffffffffffff1673ffffffffffffffffffffffffffffffffffffffff168373ffffffffffffffffffffffffffffffffffffffff160361069657600681815481106104fb576104fa6131d6565b5b90600052602060002090600302016040518060600160405290816000820160009054906101000a900473ffffffffffffffffffffffffffffffffffffffff1673ffffffffffffffffffffffffffffffffffffffff1673ffffffffffffffffffffffffffffffffffffffff16815260200160018201805461057a90613234565b80601f01602080910402602001604051908101604052809291908181526020018280546105a690613234565b80156105f35780601f106105c8576101008083540402835291602001916105f3565b820191906000526020600020905b8154815290600101906020018083116105d657829003601f168201915b5050505050815260200160028201805461060c90613234565b80601f016020809104026020016040519081016040528092919081815260200182805461063890613234565b80156106855780601f1061065a57610100808354040283529160200191610685565b820191906000526020600020905b81548152906001019060200180831161066857829003601f168201915b5050505050815250509150506106ab565b80806106a190613294565b915050610462565b505b919050565b60606000808054906101000a900473ffffffffffffffffffffffffffffffffffffffff1673ffffffffffffffffffffffffffffffffffffffff168373ffffffffffffffffffffffffffffffffffffffff1603610743576040518060400160405280601981526020017f436f6e7472616374204f776e65722773204164647265737321000000000000008152509150600190505b60005b60068054905081101561081b5760068181548110610767576107666131d6565b5b906000526020600020906003020160000160009054906101000a900473ffffffffffffffffffffffffffffffffffffffff1673ffffffffffffffffffffffffffffffffffffffff168473ffffffffffffffffffffffffffffffffffffffff1603610808576040518060400160405280601781526020017f4d616e75666163747572657227732041646472657373210000000000000000008152509250600191505b808061081390613294565b915050610746565b506000151581151503610861576040518060400160405280601881526020017f50726f64756374204f776e65722773204164647265737321000000000000000081525091505b50919050565b606060006060670de0b6b3a76400003410156108b8576040517f08c379a00000000000000000000000000000000000000000000000000000000081526004016108af9061334e565b60405180910390fd5b34600160003373ffffffffffffffffffffffffffffffffffffffff1673ffffffffffffffffffffffffffffffffffffffff16815260200190815260200160002081905550670de0b6b3a7640000600160008060009054906101000a900473ffffffffffffffffffffffffffffffffffffffff1673ffffffffffffffffffffffffffffffffffffffff1673ffffffffffffffffffffffffffffffffffffffff1681526020019081526020016000206000828254610974919061336e565b92505081905550670de0b6b3a7640000600160003373ffffffffffffffffffffffffffffffffffffffff1673ffffffffffffffffffffffffffffffffffffffff16815260200190815260200160002060008282546109d291906133a2565b9250508190555060008060005b600280549050811015610a335760028181548110610a00576109ff6131d6565b5b9060005260206000209060070201600001548703610a2057600192508091505b8080610a2b90613294565b9150506109df565b506001151582151503610a605760405180606001604052806023815260200161394f602391399450610a7c565b6040518060600160405280602881526020016139726028913994505b8460028281548110610a9157610a906131d6565b5b906000526020600020906007020160040160009054906101000a900473ffffffffffffffffffffffffffffffffffffffff1660028381548110610ad757610ad66131d6565b5b906000526020600020906007020160050180805480602002602001604051908101604052809291908181526020018280548015610b6957602002820191906000526020600020905b8160009054906101000a900473ffffffffffffffffffffffffffffffffffffffff1673ffffffffffffffffffffffffffffffffffffffff1681526020019060010190808311610b1f575b5050505050905094509450945050509193909250565b606060008060005b600280549050811015610f85578473ffffffffffffffffffffffffffffffffffffffff1660028281548110610bbf57610bbe6131d6565b5b906000526020600020906007020160060160009054906101000a900473ffffffffffffffffffffffffffffffffffffffff1673ffffffffffffffffffffffffffffffffffffffff1603610d8357600360028281548110610c2257610c216131d6565b5b906000526020600020906007020190806001815401808255809150506001900390600052602060002090600702016000909190919091506000820154816000015560018201816001019081610c779190613598565b5060028201816002019081610c8c9190613598565b50600382015481600301556004820160009054906101000a900473ffffffffffffffffffffffffffffffffffffffff168160040160006101000a81548173ffffffffffffffffffffffffffffffffffffffff021916908373ffffffffffffffffffffffffffffffffffffffff1602179055506005820181600501908054610d14929190612721565b506006820160009054906101000a900473ffffffffffffffffffffffffffffffffffffffff168160060160006101000a81548173ffffffffffffffffffffffffffffffffffffffff021916908373ffffffffffffffffffffffffffffffffffffffff1602179055505050600192505b8473ffffffffffffffffffffffffffffffffffffffff1660028281548110610dae57610dad6131d6565b5b906000526020600020906007020160040160009054906101000a900473ffffffffffffffffffffffffffffffffffffffff1673ffffffffffffffffffffffffffffffffffffffff1603610f7257600460028281548110610e1157610e106131d6565b5b906000526020600020906007020190806001815401808255809150506001900390600052602060002090600702016000909190919091506000820154816000015560018201816001019081610e669190613598565b5060028201816002019081610e7b9190613598565b50600382015481600301556004820160009054906101000a900473ffffffffffffffffffffffffffffffffffffffff168160040160006101000a81548173ffffffffffffffffffffffffffffffffffffffff021916908373ffffffffffffffffffffffffffffffffffffffff1602179055506005820181600501908054610f03929190612721565b506006820160009054906101000a900473ffffffffffffffffffffffffffffffffffffffff168160060160006101000a81548173ffffffffffffffffffffffffffffffffffffffff021916908373ffffffffffffffffffffffffffffffffffffffff1602179055505050600191505b8080610f7d90613294565b915050610b87565b506001151582151503611265576003805480602002602001604051908101604052809291908181526020016000905b8282101561125857838290600052602060002090600702016040518060e001604052908160008201548152602001600182018054610ff190613234565b80601f016020809104026020016040519081016040528092919081815260200182805461101d90613234565b801561106a5780601f1061103f5761010080835404028352916020019161106a565b820191906000526020600020905b81548152906001019060200180831161104d57829003601f168201915b5050505050815260200160028201805461108390613234565b80601f01602080910402602001604051908101604052809291908181526020018280546110af90613234565b80156110fc5780601f106110d1576101008083540402835291602001916110fc565b820191906000526020600020905b8154815290600101906020018083116110df57829003601f168201915b50505050508152602001600382015481526020016004820160009054906101000a900473ffffffffffffffffffffffffffffffffffffffff1673ffffffffffffffffffffffffffffffffffffffff1673ffffffffffffffffffffffffffffffffffffffff168152602001600582018054806020026020016040519081016040528092919081815260200182805480156111ea57602002820191906000526020600020905b8160009054906101000a900473ffffffffffffffffffffffffffffffffffffffff1673ffffffffffffffffffffffffffffffffffffffff16815260200190600101908083116111a0575b505050505081526020016006820160009054906101000a900473ffffffffffffffffffffffffffffffffffffffff1673ffffffffffffffffffffffffffffffffffffffff1673ffffffffffffffffffffffffffffffffffffffff168152505081526020019060010190610fb4565b5050505092505050611547565b6001151581151503611544576004805480602002602001604051908101604052809291908181526020016000905b8282101561153757838290600052602060002090600702016040518060e0016040529081600082015481526020016001820180546112d090613234565b80601f01602080910402602001604051908101604052809291908181526020018280546112fc90613234565b80156113495780601f1061131e57610100808354040283529160200191611349565b820191906000526020600020905b81548152906001019060200180831161132c57829003601f168201915b5050505050815260200160028201805461136290613234565b80601f016020809104026020016040519081016040528092919081815260200182805461138e90613234565b80156113db5780601f106113b0576101008083540402835291602001916113db565b820191906000526020600020905b8154815290600101906020018083116113be57829003601f168201915b50505050508152602001600382015481526020016004820160009054906101000a900473ffffffffffffffffffffffffffffffffffffffff1673ffffffffffffffffffffffffffffffffffffffff1673ffffffffffffffffffffffffffffffffffffffff168152602001600582018054806020026020016040519081016040528092919081815260200182805480156114c957602002820191906000526020600020905b8160009054906101000a900473ffffffffffffffffffffffffffffffffffffffff1673ffffffffffffffffffffffffffffffffffffffff168152602001906001019080831161147f575b505050505081526020016006820160009054906101000a900473ffffffffffffffffffffffffffffffffffffffff1673ffffffffffffffffffffffffffffffffffffffff1673ffffffffffffffffffffffffffffffffffffffff168152505081526020019060010190611293565b5050505092505050611547565b50505b919050565b606060005b6002805490508110156117bf5760005b60028281548110611575576115746131d6565b5b9060005260206000209060070201600501805490508110156117ab578373ffffffffffffffffffffffffffffffffffffffff16600283815481106115bc576115bb6131d6565b5b906000526020600020906007020160050182815481106115df576115de6131d6565b5b9060005260206000200160009054906101000a900473ffffffffffffffffffffffffffffffffffffffff1673ffffffffffffffffffffffffffffffffffffffff16036117985760056002838154811061163b5761163a6131d6565b5b9060005260206000209060070201908060018154018082558091505060019003906000526020600020906007020160009091909190915060008201548160000155600182018160010190816116909190613598565b50600282018160020190816116a59190613598565b50600382015481600301556004820160009054906101000a900473ffffffffffffffffffffffffffffffffffffffff168160040160006101000a81548173ffffffffffffffffffffffffffffffffffffffff021916908373ffffffffffffffffffffffffffffffffffffffff160217905550600582018160050190805461172d929190612721565b506006820160009054906101000a900473ffffffffffffffffffffffffffffffffffffffff168160060160006101000a81548173ffffffffffffffffffffffffffffffffffffffff021916908373ffffffffffffffffffffffffffffffffffffffff16021790555050505b80806117a390613294565b915050611561565b5080806117b790613294565b915050611551565b506005805480602002602001604051908101604052809291908181526020016000905b82821015611a8657838290600052602060002090600702016040518060e00160405290816000820154815260200160018201805461181f90613234565b80601f016020809104026020016040519081016040528092919081815260200182805461184b90613234565b80156118985780601f1061186d57610100808354040283529160200191611898565b820191906000526020600020905b81548152906001019060200180831161187b57829003601f168201915b505050505081526020016002820180546118b190613234565b80601f01602080910402602001604051908101604052809291908181526020018280546118dd90613234565b801561192a5780601f106118ff5761010080835404028352916020019161192a565b820191906000526020600020905b81548152906001019060200180831161190d57829003601f168201915b50505050508152602001600382015481526020016004820160009054906101000a900473ffffffffffffffffffffffffffffffffffffffff1673ffffffffffffffffffffffffffffffffffffffff1673ffffffffffffffffffffffffffffffffffffffff16815260200160058201805480602002602001604051908101604052809291908181526020018280548015611a1857602002820191906000526020600020905b8160009054906101000a900473ffffffffffffffffffffffffffffffffffffffff1673ffffffffffffffffffffffffffffffffffffffff16815260200190600101908083116119ce575b505050505081526020016006820160009054906101000a900473ffffffffffffffffffffffffffffffffffffffff1673ffffffffffffffffffffffffffffffffffffffff1673ffffffffffffffffffffffffffffffffffffffff1681525050815260200190600101906117e2565b505050509050919050565b611a99612773565b60005b600280549050811015611d8f5760028181548110611abd57611abc6131d6565b5b9060005260206000209060070201600001548303611d7c5760028181548110611ae957611ae86131d6565b5b90600052602060002090600702016040518060e001604052908160008201548152602001600182018054611b1c90613234565b80601f0160208091040260200160405190810160405280929190818152602001828054611b4890613234565b8015611b955780601f10611b6a57610100808354040283529160200191611b95565b820191906000526020600020905b815481529060010190602001808311611b7857829003601f168201915b50505050508152602001600282018054611bae90613234565b80601f0160208091040260200160405190810160405280929190818152602001828054611bda90613234565b8015611c275780601f10611bfc57610100808354040283529160200191611c27565b820191906000526020600020905b815481529060010190602001808311611c0a57829003601f168201915b50505050508152602001600382015481526020016004820160009054906101000a900473ffffffffffffffffffffffffffffffffffffffff1673ffffffffffffffffffffffffffffffffffffffff1673ffffffffffffffffffffffffffffffffffffffff16815260200160058201805480602002602001604051908101604052809291908181526020018280548015611d1557602002820191906000526020600020905b8160009054906101000a900473ffffffffffffffffffffffffffffffffffffffff1673ffffffffffffffffffffffffffffffffffffffff1681526020019060010190808311611ccb575b505050505081526020016006820160009054906101000a900473ffffffffffffffffffffffffffffffffffffffff1673ffffffffffffffffffffffffffffffffffffffff1673ffffffffffffffffffffffffffffffffffffffff1681525050915050611d91565b8080611d8790613294565b915050611a9c565b505b919050565b6060600061270f905060005b600280549050811015611df65760028181548110611dc357611dc26131d6565b5b9060005260206000209060070201600001548503611de357809150611df6565b8080611dee90613294565b915050611da2565b503373ffffffffffffffffffffffffffffffffffffffff1660028281548110611e2257611e216131d6565b5b906000526020600020906007020160040160009054906101000a900473ffffffffffffffffffffffffffffffffffffffff1673ffffffffffffffffffffffffffffffffffffffff1614611eaa576040517f08c379a0000000000000000000000000000000000000000000000000000000008152600401611ea1906136cc565b60405180910390fd5b60028181548110611ebe57611ebd6131d6565b5b9060005260206000209060070201600501339080600181540180825580915050600190039060005260206000200160009091909190916101000a81548173ffffffffffffffffffffffffffffffffffffffff021916908373ffffffffffffffffffffffffffffffffffffffff1602179055508260028281548110611f4557611f446131d6565b5b906000526020600020906007020160040160006101000a81548173ffffffffffffffffffffffffffffffffffffffff021916908373ffffffffffffffffffffffffffffffffffffffff16021790555060405180606001604052806024815260200161399a6024913991505092915050565b60008054906101000a900473ffffffffffffffffffffffffffffffffffffffff1681565b606060005b6002805490508110156120dd576002818154811061200057611fff6131d6565b5b90600052602060002090600702016000015483036120ca576002818154811061202c5761202b6131d6565b5b90600052602060002090600702016005018054806020026020016040519081016040528092919081815260200182805480156120bd57602002820191906000526020600020905b8160009054906101000a900473ffffffffffffffffffffffffffffffffffffffff1673ffffffffffffffffffffffffffffffffffffffff1681526020019060010190808311612073575b50505050509150506120df565b80806120d590613294565b915050611fdf565b505b919050565b6000806000905060005b60068054905081101561218f573373ffffffffffffffffffffffffffffffffffffffff1660068281548110612126576121256131d6565b5b906000526020600020906003020160000160009054906101000a900473ffffffffffffffffffffffffffffffffffffffff1673ffffffffffffffffffffffffffffffffffffffff160361217c576001915061218f565b808061218790613294565b9150506120ee565b5060011515811515146121d7576040517f08c379a00000000000000000000000000000000000000000000000000000000081526004016121ce9061375e565b60405180910390fd5b6121df612773565b6007548160000181815250508581602001819052508481604001819052508381606001818152505033816080019073ffffffffffffffffffffffffffffffffffffffff16908173ffffffffffffffffffffffffffffffffffffffff1681525050338160c0019073ffffffffffffffffffffffffffffffffffffffff16908173ffffffffffffffffffffffffffffffffffffffff168152505060028190806001815401808255809150506001900390600052602060002090600702016000909190919091506000820151816000015560208201518160010190816122c2919061377e565b5060408201518160020190816122d8919061377e565b506060820151816003015560808201518160040160006101000a81548173ffffffffffffffffffffffffffffffffffffffff021916908373ffffffffffffffffffffffffffffffffffffffff16021790555060a08201518160050190805190602001906123469291906127dc565b5060c08201518160060160006101000a81548173ffffffffffffffffffffffffffffffffffffffff021916908373ffffffffffffffffffffffffffffffffffffffff1602179055505050600760008154809291906123a390613294565b91905055506001925050509392505050565b60008060009054906101000a900473ffffffffffffffffffffffffffffffffffffffff1673ffffffffffffffffffffffffffffffffffffffff163373ffffffffffffffffffffffffffffffffffffffff1614612446576040517f08c379a000000000000000000000000000000000000000000000000000000000815260040161243d906138c2565b60405180910390fd5b6000805b6006805490508110156124e7576006818154811061246b5761246a6131d6565b5b906000526020600020906003020160000160009054906101000a900473ffffffffffffffffffffffffffffffffffffffff1673ffffffffffffffffffffffffffffffffffffffff168673ffffffffffffffffffffffffffffffffffffffff16036124d457600191505b80806124df90613294565b91505061244a565b50600015158115151461252f576040517f08c379a00000000000000000000000000000000000000000000000000000000081526004016125269061392e565b60405180910390fd5b6125376126ea565b85816000019073ffffffffffffffffffffffffffffffffffffffff16908173ffffffffffffffffffffffffffffffffffffffff1681525050848160200181905250838160400181905250600681908060018154018082558091505060019003906000526020600020906003020160009091909190915060008201518160000160006101000a81548173ffffffffffffffffffffffffffffffffffffffff021916908373ffffffffffffffffffffffffffffffffffffffff1602179055506020820151816001019081612609919061377e565b50604082015181600201908161261f919061377e565b5050506001925050509392505050565b600080600090505b6002805490508110156126cc5760028181548110612658576126576131d6565b5b90600052602060002090600702016000015483036126b95760028181548110612684576126836131d6565b5b906000526020600020906007020160040160009054906101000a900473ffffffffffffffffffffffffffffffffffffffff1691505b80806126c490613294565b915050612637565b50919050565b60016020528060005260406000206000915090505481565b6040518060600160405280600073ffffffffffffffffffffffffffffffffffffffff16815260200160608152602001606081525090565b8280548282559060005260206000209081019282156127625760005260206000209182015b82811115612761578254825591600101919060010190612746565b5b50905061276f9190612866565b5090565b6040518060e0016040528060008152602001606081526020016060815260200160008152602001600073ffffffffffffffffffffffffffffffffffffffff16815260200160608152602001600073ffffffffffffffffffffffffffffffffffffffff1681525090565b828054828255906000526020600020908101928215612855579160200282015b828111156128545782518260006101000a81548173ffffffffffffffffffffffffffffffffffffffff021916908373ffffffffffffffffffffffffffffffffffffffff160217905550916020019190600101906127fc565b5b5090506128629190612866565b5090565b5b8082111561287f576000816000905550600101612867565b5090565b6000819050919050565b61289681612883565b82525050565b60006020820190506128b1600083018461288d565b92915050565b6000604051905090565b600080fd5b600080fd5b600073ffffffffffffffffffffffffffffffffffffffff82169050919050565b60006128f6826128cb565b9050919050565b612906816128eb565b811461291157600080fd5b50565b600081359050612923816128fd565b92915050565b60006020828403121561293f5761293e6128c1565b5b600061294d84828501612914565b91505092915050565b61295f816128eb565b82525050565b600081519050919050565b600082825260208201905092915050565b60005b8381101561299f578082015181840152602081019050612984565b60008484015250505050565b6000601f19601f8301169050919050565b60006129c782612965565b6129d18185612970565b93506129e1818560208601612981565b6129ea816129ab565b840191505092915050565b6000606083016000830151612a0d6000860182612956565b5060208301518482036020860152612a2582826129bc565b91505060408301518482036040860152612a3f82826129bc565b9150508091505092915050565b60006020820190508181036000830152612a6681846129f5565b905092915050565b600082825260208201905092915050565b6000612a8a82612965565b612a948185612a6e565b9350612aa4818560208601612981565b612aad816129ab565b840191505092915050565b60006020820190508181036000830152612ad28184612a7f565b905092915050565b612ae381612883565b8114612aee57600080fd5b50565b600081359050612b0081612ada565b92915050565b600060208284031215612b1c57612b1b6128c1565b5b6000612b2a84828501612af1565b91505092915050565b612b3c816128eb565b82525050565b600081519050919050565b600082825260208201905092915050565b6000819050602082019050919050565b6000612b7a8383612956565b60208301905092915050565b6000602082019050919050565b6000612b9e82612b42565b612ba88185612b4d565b9350612bb383612b5e565b8060005b83811015612be4578151612bcb8882612b6e565b9750612bd683612b86565b925050600181019050612bb7565b5085935050505092915050565b60006060820190508181036000830152612c0b8186612a7f565b9050612c1a6020830185612b33565b8181036040830152612c2c8184612b93565b9050949350505050565b600081519050919050565b600082825260208201905092915050565b6000819050602082019050919050565b612c6b81612883565b82525050565b600082825260208201905092915050565b6000612c8d82612b42565b612c978185612c71565b9350612ca283612b5e565b8060005b83811015612cd3578151612cba8882612b6e565b9750612cc583612b86565b925050600181019050612ca6565b5085935050505092915050565b600060e083016000830151612cf86000860182612c62565b5060208301518482036020860152612d1082826129bc565b91505060408301518482036040860152612d2a82826129bc565b9150506060830151612d3f6060860182612c62565b506080830151612d526080860182612956565b5060a083015184820360a0860152612d6a8282612c82565b91505060c0830151612d7f60c0860182612956565b508091505092915050565b6000612d968383612ce0565b905092915050565b6000602082019050919050565b6000612db682612c36565b612dc08185612c41565b935083602082028501612dd285612c52565b8060005b85811015612e0e5784840389528151612def8582612d8a565b9450612dfa83612d9e565b925060208a01995050600181019050612dd6565b50829750879550505050505092915050565b60006020820190508181036000830152612e3a8184612dab565b905092915050565b600060e083016000830151612e5a6000860182612c62565b5060208301518482036020860152612e7282826129bc565b91505060408301518482036040860152612e8c82826129bc565b9150506060830151612ea16060860182612c62565b506080830151612eb46080860182612956565b5060a083015184820360a0860152612ecc8282612c82565b91505060c0830151612ee160c0860182612956565b508091505092915050565b60006020820190508181036000830152612f068184612e42565b905092915050565b60008060408385031215612f2557612f246128c1565b5b6000612f3385828601612af1565b9250506020612f4485828601612914565b9150509250929050565b6000602082019050612f636000830184612b33565b92915050565b60006020820190508181036000830152612f838184612b93565b905092915050565b600080fd5b600080fd5b7f4e487b7100000000000000000000000000000000000000000000000000000000600052604160045260246000fd5b612fcd826129ab565b810181811067ffffffffffffffff82111715612fec57612feb612f95565b5b80604052505050565b6000612fff6128b7565b905061300b8282612fc4565b919050565b600067ffffffffffffffff82111561302b5761302a612f95565b5b613034826129ab565b9050602081019050919050565b82818337600083830152505050565b600061306361305e84613010565b612ff5565b90508281526020810184848401111561307f5761307e612f90565b5b61308a848285613041565b509392505050565b600082601f8301126130a7576130a6612f8b565b5b81356130b7848260208601613050565b91505092915050565b6000806000606084860312156130d9576130d86128c1565b5b600084013567ffffffffffffffff8111156130f7576130f66128c6565b5b61310386828701613092565b935050602084013567ffffffffffffffff811115613124576131236128c6565b5b61313086828701613092565b925050604061314186828701612af1565b9150509250925092565b600080600060608486031215613164576131636128c1565b5b600061317286828701612914565b935050602084013567ffffffffffffffff811115613193576131926128c6565b5b61319f86828701613092565b925050604084013567ffffffffffffffff8111156131c0576131bf6128c6565b5b6131cc86828701613092565b9150509250925092565b7f4e487b7100000000000000000000000000000000000000000000000000000000600052603260045260246000fd5b7f4e487b7100000000000000000000000000000000000000000000000000000000600052602260045260246000fd5b6000600282049050600182168061324c57607f821691505b60208210810361325f5761325e613205565b5b50919050565b7f4e487b7100000000000000000000000000000000000000000000000000000000600052601160045260246000fd5b600061329f82612883565b91507fffffffffffffffffffffffffffffffffffffffffffffffffffffffffffffffff82036132d1576132d0613265565b5b600182019050919050565b7f596f75206e656564203120457468657220746f207665726966792070726f647560008201527f6374000000000000000000000000000000000000000000000000000000000000602082015250565b6000613338602283612a6e565b9150613343826132dc565b604082019050919050565b600060208201905081810360008301526133678161332b565b9050919050565b600061337982612883565b915061338483612883565b925082820190508082111561339c5761339b613265565b5b92915050565b60006133ad82612883565b91506133b883612883565b92508282039050818111156133d0576133cf613265565b5b92915050565b6000815490506133e581613234565b9050919050565b60008190508160005260206000209050919050565b60006020601f8301049050919050565b600082821b905092915050565b60006008830261344e7fffffffffffffffffffffffffffffffffffffffffffffffffffffffffffffffff82613411565b6134588683613411565b95508019841693508086168417925050509392505050565b6000819050919050565b600061349561349061348b84612883565b613470565b612883565b9050919050565b6000819050919050565b6134af8361347a565b6134c36134bb8261349c565b84845461341e565b825550505050565b600090565b6134d86134cb565b6134e38184846134a6565b505050565b5b81811015613507576134fc6000826134d0565b6001810190506134e9565b5050565b601f82111561354c5761351d816133ec565b61352684613401565b81016020851015613535578190505b61354961354185613401565b8301826134e8565b50505b505050565b600082821c905092915050565b600061356f60001984600802613551565b1980831691505092915050565b6000613588838361355e565b9150826002028217905092915050565b8181036135a657505061367e565b6135af826133d6565b67ffffffffffffffff8111156135c8576135c7612f95565b5b6135d28254613234565b6135dd82828561350b565b6000601f83116001811461360c57600084156135fa578287015490505b613604858261357c565b865550613677565b601f19841661361a876133ec565b9650613625866133ec565b60005b8281101561364d57848901548255600182019150600185019450602081019050613628565b8683101561366a5784890154613666601f89168261355e565b8355505b6001600288020188555050505b5050505050505b565b7f596f7520646f6e74206f776e20746869732070726f6475637400000000000000600082015250565b60006136b6601983612a6e565b91506136c182613680565b602082019050919050565b600060208201905081810360008301526136e5816136a9565b9050919050565b7f4f6e6c7920746865206d616e7566616374757265722063616e2063726561746560008201527f207468652070726f647563747321000000000000000000000000000000000000602082015250565b6000613748602e83612a6e565b9150613753826136ec565b604082019050919050565b600060208201905081810360008301526137778161373b565b9050919050565b61378782612965565b67ffffffffffffffff8111156137a05761379f612f95565b5b6137aa8254613234565b6137b582828561350b565b600060209050601f8311600181146137e857600084156137d6578287015190505b6137e0858261357c565b865550613848565b601f1984166137f6866133ec565b60005b8281101561381e578489015182556001820191506020850194506020810190506137f9565b8683101561383b5784890151613837601f89168261355e565b8355505b6001600288020188555050505b505050505050565b7f4f6e6c792074686520636f6e7472616374206f776e65722063616e206164642060008201527f6d616e7566616374757265722100000000000000000000000000000000000000602082015250565b60006138ac602d83612a6e565b91506138b782613850565b604082019050919050565b600060208201905081810360008301526138db8161389f565b9050919050565b7f546865206d616e75666163747572657220616c72656164792065786973747321600082015250565b6000613918602083612a6e565b9150613923826138e2565b602082019050919050565b600060208201905081810360008301526139478161390b565b905091905056fe56657269666965642c2050726f6475637420666f756e6420696e206f7572206c6973744e6f742056657269666965642c2050726f6475637420696e206e6f7420696e206f7572206c6973744f776e657220686173206265656e207375636365737366756c6c79206368616e67656421a2646970667358221220691bdb1dd1d170f2b14a899bf58277fc64a445390211915301261cacd53ef95864736f6c63430008110033",
  "immutableReferences": {},
  "source": "//SPDX-License-Identifier: MIT\r\npragma solidity ^0.8.7;\r\n\r\n//\"0xAb8483F64d9C6d1EcF9b849Ae677dD3315835cb2\", companyabc, islamabad\r\n\r\ncontract ProductIdentification{\r\n    address public owner;\r\n    mapping(address => uint) public balance;\r\n\r\n    // data type of manufacturer\r\n    struct manufacturer{\r\n        address mID;\r\n        string companyName;\r\n        string companyLocation;\r\n    }\r\n\r\n    // data type of product\r\n    struct product{\r\n        uint productID;\r\n        string productName;\r\n        string pDescription;\r\n        uint price;\r\n        address currentOwner;\r\n        address[] ownersList;\r\n        address manufactur;\r\n\r\n    }\r\n\r\n    product[] productArray;\r\n    product[] man_list_products;\r\n    product[] user_list_products;\r\n    product[] user_old_products;\r\n    manufacturer[] manufacturerArray;\r\n    uint productCount = 0;\r\n\r\n    constructor() payable{\r\n        owner = msg.sender;\r\n        balance[owner] = msg.value;\r\n    }\r\n\r\n    function createManufacturer(address mAddress, string memory cName, string memory cLocation) public returns (uint) {\r\n        require (msg.sender == owner, \"Only the contract owner can add manufacturer!\");\r\n        bool flag = false;\r\n        for (uint i=0; i<manufacturerArray.length; i++){\r\n            if (mAddress == manufacturerArray[i].mID){\r\n                flag = true;\r\n            }\r\n        }\r\n        require (flag == false, \"The manufacturer already exists!\");\r\n        manufacturer memory newManufacturer;\r\n        newManufacturer.mID = mAddress;\r\n        newManufacturer.companyName = cName;\r\n        newManufacturer.companyLocation = cLocation;\r\n        manufacturerArray.push(newManufacturer);\r\n        return 1;\r\n    }\r\n\r\n    function createProduct(string memory _name, string memory _desc, uint _price) public returns (uint) {\r\n        bool flag = false;\r\n        for (uint i=0; i<manufacturerArray.length; i++){\r\n            if(manufacturerArray[i].mID == msg.sender){\r\n                flag = true;\r\n                break;\r\n            }\r\n        }\r\n        require(flag == true, \"Only the manufacturer can create the products!\");\r\n        product memory newProduct;\r\n        newProduct.productID = productCount;\r\n        newProduct.productName = _name;\r\n        newProduct.pDescription = _desc;\r\n        newProduct.price = _price;\r\n        newProduct.currentOwner = msg.sender;\r\n        newProduct.manufactur = msg.sender;\r\n        productArray.push(newProduct);\r\n        productCount++;\r\n        return 1;\r\n    }\r\n\r\n    function changeOwner(uint _id, address  _newOwner) public returns (string memory feedback) {\r\n        uint index = 9999;\r\n        for (uint i=0; i<productArray.length; i++){\r\n            if (_id == productArray[i].productID){\r\n                index = i;\r\n                break;\r\n            }\r\n        }\r\n        require (productArray[index].currentOwner == msg.sender, \"You dont own this product\" );\r\n        productArray[index].ownersList.push(msg.sender);\r\n        productArray[index].currentOwner = _newOwner;\r\n        feedback = \"Owner has been successfully changed!\";\r\n        return feedback;\r\n    }\r\n\r\n    function getOwner(uint _id) public view returns (address temp){\r\n        for (uint i=0; i<productArray.length; i++){\r\n            if (_id == productArray[i].productID){\r\n                temp = productArray[i].currentOwner;\r\n            }\r\n        }\r\n        return temp;\r\n    }\r\n\r\n    function verifyProduct(uint _id) public payable returns (string memory ver, address currentOwner, address[] memory owners ){\r\n        require(msg.value >= 1 * (1 ether), \"You need 1 Ether to verify product\");\r\n        balance[msg.sender] = msg.value;\r\n        balance[owner] += 1 * (1 ether);\r\n        balance[msg.sender] -= 1 * (1 ether);\r\n        // msg.value -= 1 * (1 ether);\r\n        bool flag = false;\r\n        uint index = 0;\r\n        for (uint i=0; i<productArray.length; i++){\r\n            if (_id == productArray[i].productID){\r\n                flag = true;\r\n                index = i;\r\n            }\r\n        }\r\n        if (flag == true){\r\n            ver = \"Verified, Product found in our list\";\r\n        }\r\n        else{\r\n            ver = \"Not Verified, Product in not in our list\";\r\n        }\r\n        return (ver, productArray[index].currentOwner, productArray[index].ownersList);\r\n    }\r\n\r\n    function getProductDetails(uint _id) public view returns (product memory pDetails){\r\n        for (uint i=0; i<productArray.length; i++){\r\n            if (_id == productArray[i].productID){\r\n                pDetails = productArray[i];\r\n                return pDetails;\r\n            }\r\n        }\r\n    }\r\n\r\n    function getManufacturerDetails(address _id) public view returns (manufacturer memory mDetails){\r\n        for (uint i=0; i<manufacturerArray.length; i++){\r\n            if (_id == manufacturerArray[i].mID){\r\n                mDetails = manufacturerArray[i];\r\n                return mDetails;\r\n            }\r\n        }\r\n    }\r\n\r\n    function getOwnerList(uint _id) public view returns (address[] memory owners){\r\n        for (uint i=0; i<productArray.length; i++){\r\n            if (_id == productArray[i].productID){\r\n                owners = productArray[i].ownersList;\r\n                return owners;\r\n            }\r\n        }\r\n    }\r\n\r\n    function getIdentity(address _whoIs) public view returns (string memory identity){\r\n        bool flag = false;\r\n        if (_whoIs == owner){\r\n            identity = \"Contract Owner's Address!\";\r\n            flag = true;\r\n        }\r\n        for (uint i=0; i<manufacturerArray.length; i++){\r\n            if (_whoIs == manufacturerArray[i].mID){\r\n                identity = \"Manufacturer's Address!\";\r\n                flag = true;\r\n            }\r\n        }\r\n        if (flag==false){\r\n            identity = \"Product Owner's Address!\";\r\n        }\r\n        return identity;\r\n    }\r\n\r\n    function getBalance() public view returns(uint256){\r\n        return balance[owner];\r\n    }\r\n\r\n    function getProductByAddress(address whoIs) public payable returns(product[] memory output){\r\n        bool flag1 = false;\r\n        bool flag2 = false;\r\n        for (uint i=0; i<productArray.length; i++){\r\n            if (productArray[i].manufactur == whoIs){\r\n                man_list_products.push(productArray[i]);\r\n                flag1 = true;\r\n            }\r\n            if (productArray[i].currentOwner == whoIs){\r\n                user_list_products.push(productArray[i]);\r\n                flag2 = true;\r\n            }\r\n        }\r\n        if (flag1 == true){\r\n            output = man_list_products;\r\n            return output;\r\n        }\r\n        if(flag2 == true){\r\n            output = user_list_products;\r\n            return output;\r\n        }\r\n    }\r\n\r\n    function getOldProductByUser(address whoIs) public payable returns(product[] memory soldProducts){\r\n        for (uint i=0; i<productArray.length; i++){\r\n            for(uint j=0; j<productArray[i].ownersList.length; j++){\r\n                if (productArray[i].ownersList[j] == whoIs){\r\n                    user_old_products.push(productArray[i]);\r\n                }\r\n            }\r\n\r\n        }\r\n        soldProducts = user_old_products;\r\n        return soldProducts;\r\n    }\r\n\r\n}\r\n",
  "sourcePath": "D:\\Assignment\\Semester 7\\Blockchain\\fake-product-identification-system\\src\\blockchain\\contracts\\FakeProductIdentificationSystem.sol",
  "compiler": {
    "name": "solc",
    "version": "0.8.17+commit.8df45f5f.Emscripten.clang"
  },
  "schemaVersion": "3.4.11",
  "updatedAt": "2022-12-05T16:44:41.623Z",
  "networkType": "ethereum",
  "devdoc": {
    "kind": "dev",
    "methods": {},
    "version": 1
  },
  "userdoc": {
    "kind": "user",
    "methods": {},
    "version": 1
  }
}