{
  "contractName": "ProductIdentification",
  "abi": [
    {
      "inputs": [],
      "name": "owner",
      "outputs": [
        {
          "internalType": "address",
          "name": "",
          "type": "address"
        }
      ],
      "stateMutability": "view",
      "type": "function",
      "constant": true
    },
    {
      "inputs": [
        {
          "internalType": "uint256",
          "name": "_id",
          "type": "uint256"
        },
        {
          "internalType": "string",
          "name": "_name",
          "type": "string"
        },
        {
          "internalType": "string",
          "name": "_location",
          "type": "string"
        }
      ],
      "name": "createManufacturer",
      "outputs": [
        {
          "internalType": "uint256",
          "name": "",
          "type": "uint256"
        }
      ],
      "stateMutability": "nonpayable",
      "type": "function"
    },
    {
      "inputs": [
        {
          "internalType": "uint256",
          "name": "_id",
          "type": "uint256"
        },
        {
          "internalType": "string",
          "name": "_name",
          "type": "string"
        },
        {
          "internalType": "string",
          "name": "_pStatus",
          "type": "string"
        },
        {
          "internalType": "uint256",
          "name": "_price",
          "type": "uint256"
        },
        {
          "internalType": "string",
          "name": "_pOwner",
          "type": "string"
        },
        {
          "internalType": "uint256",
          "name": "man",
          "type": "uint256"
        }
      ],
      "name": "createProduct",
      "outputs": [
        {
          "internalType": "uint256",
          "name": "",
          "type": "uint256"
        }
      ],
      "stateMutability": "nonpayable",
      "type": "function"
    },
    {
      "inputs": [
        {
          "internalType": "uint256",
          "name": "_id",
          "type": "uint256"
        },
        {
          "internalType": "string",
          "name": "_newOwner",
          "type": "string"
        }
      ],
      "name": "changeOwner",
      "outputs": [],
      "stateMutability": "nonpayable",
      "type": "function"
    },
    {
      "inputs": [
        {
          "internalType": "uint256",
          "name": "_id",
          "type": "uint256"
        }
      ],
      "name": "getOwner",
      "outputs": [
        {
          "internalType": "string",
          "name": "temp",
          "type": "string"
        }
      ],
      "stateMutability": "view",
      "type": "function",
      "constant": true
    },
    {
      "inputs": [
        {
          "internalType": "uint256",
          "name": "_id",
          "type": "uint256"
        }
      ],
      "name": "verifyProduct",
      "outputs": [
        {
          "internalType": "string",
          "name": "ver",
          "type": "string"
        }
      ],
      "stateMutability": "view",
      "type": "function",
      "constant": true
    },
    {
      "inputs": [
        {
          "internalType": "uint256",
          "name": "_id",
          "type": "uint256"
        }
      ],
      "name": "getProductDetails",
      "outputs": [
        {
          "components": [
            {
              "internalType": "uint256",
              "name": "productID",
              "type": "uint256"
            },
            {
              "internalType": "string",
              "name": "productName",
              "type": "string"
            },
            {
              "internalType": "string",
              "name": "pStatus",
              "type": "string"
            },
            {
              "internalType": "uint256",
              "name": "price",
              "type": "uint256"
            },
            {
              "internalType": "string",
              "name": "currentOwner",
              "type": "string"
            },
            {
              "internalType": "string[]",
              "name": "ownersList",
              "type": "string[]"
            },
            {
              "internalType": "uint256",
              "name": "manufactur",
              "type": "uint256"
            }
          ],
          "internalType": "struct ProductIdentification.product",
          "name": "pDetails",
          "type": "tuple"
        }
      ],
      "stateMutability": "view",
      "type": "function",
      "constant": true
    },
    {
      "inputs": [
        {
          "internalType": "uint256",
          "name": "_id",
          "type": "uint256"
        }
      ],
      "name": "getManufacturerDetails",
      "outputs": [
        {
          "components": [
            {
              "internalType": "uint256",
              "name": "mID",
              "type": "uint256"
            },
            {
              "internalType": "string",
              "name": "companyName",
              "type": "string"
            },
            {
              "internalType": "string",
              "name": "companyLocation",
              "type": "string"
            }
          ],
          "internalType": "struct ProductIdentification.manufacturer",
          "name": "mDetails",
          "type": "tuple"
        }
      ],
      "stateMutability": "view",
      "type": "function",
      "constant": true
    },
    {
      "inputs": [
        {
          "internalType": "uint256",
          "name": "_id",
          "type": "uint256"
        }
      ],
      "name": "getOwnerList",
      "outputs": [
        {
          "internalType": "string[]",
          "name": "owners",
          "type": "string[]"
        }
      ],
      "stateMutability": "view",
      "type": "function",
      "constant": true
    }
  ],
  "bytecode": "0x608060405234801561001057600080fd5b50611bf7806100206000396000f3fe608060405234801561001057600080fd5b50600436106100935760003560e01c80638dd95e99116100665780638dd95e991461014657806397cb35ae14610176578063ae04e6f0146101a6578063c41a360a146101d6578063ed83eeb11461020657610093565b806323e81ace14610098578063524e8462146100c85780636813b53b146100f85780638da5cb5b14610128575b600080fd5b6100b260048036038101906100ad919061104b565b610222565b6040516100bf919061113b565b60405180910390f35b6100e260048036038101906100dd9190611156565b6103c1565b6040516100ef9190611202565b60405180910390f35b610112600480360381019061010d9190611156565b610467565b60405161011f91906113f0565b60405180910390f35b6101306107a7565b60405161013d9190611453565b60405180910390f35b610160600480360381019061015b9190611156565b6107cb565b60405161016d91906114f4565b60405180910390f35b610190600480360381019061018b9190611156565b610920565b60405161019d919061156d565b60405180910390f35b6101c060048036038101906101bb919061158f565b610ae1565b6040516101cd919061113b565b60405180910390f35b6101f060048036038101906101eb9190611156565b610b77565b6040516101fd9190611202565b60405180910390f35b610220600480360381019061021b919061161a565b610c7f565b005b6000806000905060005b60018054905081101561027d576001818154811061024d5761024c611676565b5b906000526020600020906007020160000154890361026a57600191505b8080610275906116d4565b91505061022c565b5060001515811515146102c5576040517f08c379a00000000000000000000000000000000000000000000000000000000081526004016102bc90611768565b60405180910390fd5b6102cd610d83565b8881600001818152505087816020018190525086816040018190525085816060018181525050848160800181905250838160c001818152505060018190806001815401808255809150506001900390600052602060002090600702016000909190919091506000820151816000015560208201518160010190816103519190611994565b5060408201518160020190816103679190611994565b506060820151816003015560808201518160040190816103879190611994565b5060a08201518160050190805190602001906103a4929190610dc0565b5060c0820151816006015550506001925050509695505050505050565b60606000805b60018054905081101561041857600181815481106103e8576103e7611676565b5b906000526020600020906007020160000154840361040557600191505b8080610410906116d4565b9150506103c7565b50600115158115150361044557604051806060016040528060248152602001611b9e602491399150610461565b604051806060016040528060248152602001611b7a6024913991505b50919050565b61046f610d83565b60005b6001805490508110156107a0576001818154811061049357610492611676565b5b906000526020600020906007020160000154830361078d57600181815481106104bf576104be611676565b5b90600052602060002090600702016040518060e0016040529081600082015481526020016001820180546104f2906117b7565b80601f016020809104026020016040519081016040528092919081815260200182805461051e906117b7565b801561056b5780601f106105405761010080835404028352916020019161056b565b820191906000526020600020905b81548152906001019060200180831161054e57829003601f168201915b50505050508152602001600282018054610584906117b7565b80601f01602080910402602001604051908101604052809291908181526020018280546105b0906117b7565b80156105fd5780601f106105d2576101008083540402835291602001916105fd565b820191906000526020600020905b8154815290600101906020018083116105e057829003601f168201915b5050505050815260200160038201548152602001600482018054610620906117b7565b80601f016020809104026020016040519081016040528092919081815260200182805461064c906117b7565b80156106995780601f1061066e57610100808354040283529160200191610699565b820191906000526020600020905b81548152906001019060200180831161067c57829003601f168201915b5050505050815260200160058201805480602002602001604051908101604052809291908181526020016000905b828210156107735783829060005260206000200180546106e6906117b7565b80601f0160208091040260200160405190810160405280929190818152602001828054610712906117b7565b801561075f5780601f106107345761010080835404028352916020019161075f565b820191906000526020600020905b81548152906001019060200180831161074257829003601f168201915b5050505050815260200190600101906106c7565b5050505081526020016006820154815250509150506107a2565b8080610798906116d4565b915050610472565b505b919050565b60008054906101000a900473ffffffffffffffffffffffffffffffffffffffff1681565b606060005b60018054905081101561091957600181815481106107f1576107f0611676565b5b9060005260206000209060070201600001548303610906576001818154811061081d5761081c611676565b5b9060005260206000209060070201600501805480602002602001604051908101604052809291908181526020016000905b828210156108fa57838290600052602060002001805461086d906117b7565b80601f0160208091040260200160405190810160405280929190818152602001828054610899906117b7565b80156108e65780601f106108bb576101008083540402835291602001916108e6565b820191906000526020600020905b8154815290600101906020018083116108c957829003601f168201915b50505050508152602001906001019061084e565b5050505091505061091b565b8080610911906116d4565b9150506107d0565b505b919050565b610928610e19565b60005b600280549050811015610ada576002818154811061094c5761094b611676565b5b9060005260206000209060030201600001548303610ac7576002818154811061097857610977611676565b5b9060005260206000209060030201604051806060016040529081600082015481526020016001820180546109ab906117b7565b80601f01602080910402602001604051908101604052809291908181526020018280546109d7906117b7565b8015610a245780601f106109f957610100808354040283529160200191610a24565b820191906000526020600020905b815481529060010190602001808311610a0757829003601f168201915b50505050508152602001600282018054610a3d906117b7565b80601f0160208091040260200160405190810160405280929190818152602001828054610a69906117b7565b8015610ab65780601f10610a8b57610100808354040283529160200191610ab6565b820191906000526020600020905b815481529060010190602001808311610a9957829003601f168201915b505050505081525050915050610adc565b8080610ad2906116d4565b91505061092b565b505b919050565b6000610aeb610e19565b848160000181815250508381602001819052508281604001819052506002819080600181540180825580915050600190039060005260206000209060030201600090919091909150600082015181600001556020820151816001019081610b529190611994565b506040820151816002019081610b689190611994565b50505060019150509392505050565b606060005b600180549050811015610c795760018181548110610b9d57610b9c611676565b5b9060005260206000209060070201600001548303610c665760018181548110610bc957610bc8611676565b5b90600052602060002090600702016004018054610be5906117b7565b80601f0160208091040260200160405190810160405280929190818152602001828054610c11906117b7565b8015610c5e5780601f10610c3357610100808354040283529160200191610c5e565b820191906000526020600020905b815481529060010190602001808311610c4157829003601f168201915b505050505091505b8080610c71906116d4565b915050610b7c565b50919050565b60005b600180549050811015610d7e5760018181548110610ca357610ca2611676565b5b9060005260206000209060070201600001548303610d6b5760018181548110610ccf57610cce611676565b5b906000526020600020906007020160050160018281548110610cf457610cf3611676565b5b9060005260206000209060070201600401908060018154018082558091505060019003906000526020600020016000909190919091509081610d369190611a91565b508160018281548110610d4c57610d4b611676565b5b90600052602060002090600702016004019081610d699190611994565b505b8080610d76906116d4565b915050610c82565b505050565b6040518060e00160405280600081526020016060815260200160608152602001600081526020016060815260200160608152602001600081525090565b828054828255906000526020600020908101928215610e08579160200282015b82811115610e07578251829081610df79190611994565b5091602001919060010190610de0565b5b509050610e159190610e3a565b5090565b60405180606001604052806000815260200160608152602001606081525090565b5b80821115610e5a5760008181610e519190610e5e565b50600101610e3b565b5090565b508054610e6a906117b7565b6000825580601f10610e7c5750610e9b565b601f016020900490600052602060002090810190610e9a9190610e9e565b5b50565b5b80821115610eb7576000816000905550600101610e9f565b5090565b6000604051905090565b600080fd5b600080fd5b6000819050919050565b610ee281610ecf565b8114610eed57600080fd5b50565b600081359050610eff81610ed9565b92915050565b600080fd5b600080fd5b6000601f19601f8301169050919050565b7f4e487b7100000000000000000000000000000000000000000000000000000000600052604160045260246000fd5b610f5882610f0f565b810181811067ffffffffffffffff82111715610f7757610f76610f20565b5b80604052505050565b6000610f8a610ebb565b9050610f968282610f4f565b919050565b600067ffffffffffffffff821115610fb657610fb5610f20565b5b610fbf82610f0f565b9050602081019050919050565b82818337600083830152505050565b6000610fee610fe984610f9b565b610f80565b90508281526020810184848401111561100a57611009610f0a565b5b611015848285610fcc565b509392505050565b600082601f83011261103257611031610f05565b5b8135611042848260208601610fdb565b91505092915050565b60008060008060008060c0878903121561106857611067610ec5565b5b600061107689828a01610ef0565b965050602087013567ffffffffffffffff81111561109757611096610eca565b5b6110a389828a0161101d565b955050604087013567ffffffffffffffff8111156110c4576110c3610eca565b5b6110d089828a0161101d565b94505060606110e189828a01610ef0565b935050608087013567ffffffffffffffff81111561110257611101610eca565b5b61110e89828a0161101d565b92505060a061111f89828a01610ef0565b9150509295509295509295565b61113581610ecf565b82525050565b6000602082019050611150600083018461112c565b92915050565b60006020828403121561116c5761116b610ec5565b5b600061117a84828501610ef0565b91505092915050565b600081519050919050565b600082825260208201905092915050565b60005b838110156111bd5780820151818401526020810190506111a2565b60008484015250505050565b60006111d482611183565b6111de818561118e565b93506111ee81856020860161119f565b6111f781610f0f565b840191505092915050565b6000602082019050818103600083015261121c81846111c9565b905092915050565b61122d81610ecf565b82525050565b600082825260208201905092915050565b600061124f82611183565b6112598185611233565b935061126981856020860161119f565b61127281610f0f565b840191505092915050565b600081519050919050565b600082825260208201905092915050565b6000819050602082019050919050565b60006112b58383611244565b905092915050565b6000602082019050919050565b60006112d58261127d565b6112df8185611288565b9350836020820285016112f185611299565b8060005b8581101561132d578484038952815161130e85826112a9565b9450611319836112bd565b925060208a019950506001810190506112f5565b50829750879550505050505092915050565b600060e0830160008301516113576000860182611224565b506020830151848203602086015261136f8282611244565b915050604083015184820360408601526113898282611244565b915050606083015161139e6060860182611224565b50608083015184820360808601526113b68282611244565b91505060a083015184820360a08601526113d082826112ca565b91505060c08301516113e560c0860182611224565b508091505092915050565b6000602082019050818103600083015261140a818461133f565b905092915050565b600073ffffffffffffffffffffffffffffffffffffffff82169050919050565b600061143d82611412565b9050919050565b61144d81611432565b82525050565b60006020820190506114686000830184611444565b92915050565b600082825260208201905092915050565b600061148a8261127d565b611494818561146e565b9350836020820285016114a685611299565b8060005b858110156114e257848403895281516114c385826112a9565b94506114ce836112bd565b925060208a019950506001810190506114aa565b50829750879550505050505092915050565b6000602082019050818103600083015261150e818461147f565b905092915050565b600060608301600083015161152e6000860182611224565b50602083015184820360208601526115468282611244565b915050604083015184820360408601526115608282611244565b9150508091505092915050565b600060208201905081810360008301526115878184611516565b905092915050565b6000806000606084860312156115a8576115a7610ec5565b5b60006115b686828701610ef0565b935050602084013567ffffffffffffffff8111156115d7576115d6610eca565b5b6115e38682870161101d565b925050604084013567ffffffffffffffff81111561160457611603610eca565b5b6116108682870161101d565b9150509250925092565b6000806040838503121561163157611630610ec5565b5b600061163f85828601610ef0565b925050602083013567ffffffffffffffff8111156116605761165f610eca565b5b61166c8582860161101d565b9150509250929050565b7f4e487b7100000000000000000000000000000000000000000000000000000000600052603260045260246000fd5b7f4e487b7100000000000000000000000000000000000000000000000000000000600052601160045260246000fd5b60006116df82610ecf565b91507fffffffffffffffffffffffffffffffffffffffffffffffffffffffffffffffff8203611711576117106116a5565b5b600182019050919050565b7f5468652070726f6475637420616c726561647920657869737473210000000000600082015250565b6000611752601b8361118e565b915061175d8261171c565b602082019050919050565b6000602082019050818103600083015261178181611745565b9050919050565b7f4e487b7100000000000000000000000000000000000000000000000000000000600052602260045260246000fd5b600060028204905060018216806117cf57607f821691505b6020821081036117e2576117e1611788565b5b50919050565b60008190508160005260206000209050919050565b60006020601f8301049050919050565b600082821b905092915050565b60006008830261184a7fffffffffffffffffffffffffffffffffffffffffffffffffffffffffffffffff8261180d565b611854868361180d565b95508019841693508086168417925050509392505050565b6000819050919050565b600061189161188c61188784610ecf565b61186c565b610ecf565b9050919050565b6000819050919050565b6118ab83611876565b6118bf6118b782611898565b84845461181a565b825550505050565b600090565b6118d46118c7565b6118df8184846118a2565b505050565b5b81811015611903576118f86000826118cc565b6001810190506118e5565b5050565b601f82111561194857611919816117e8565b611922846117fd565b81016020851015611931578190505b61194561193d856117fd565b8301826118e4565b50505b505050565b600082821c905092915050565b600061196b6000198460080261194d565b1980831691505092915050565b6000611984838361195a565b9150826002028217905092915050565b61199d82611183565b67ffffffffffffffff8111156119b6576119b5610f20565b5b6119c082546117b7565b6119cb828285611907565b600060209050601f8311600181146119fe57600084156119ec578287015190505b6119f68582611978565b865550611a5e565b601f198416611a0c866117e8565b60005b82811015611a3457848901518255600182019150602085019450602081019050611a0f565b86831015611a515784890151611a4d601f89168261195a565b8355505b6001600288020188555050505b505050505050565b600081549050611a75816117b7565b9050919050565b60008190508160005260206000209050919050565b818103611a9f575050611b77565b611aa882611a66565b67ffffffffffffffff811115611ac157611ac0610f20565b5b611acb82546117b7565b611ad6828285611907565b6000601f831160018114611b055760008415611af3578287015490505b611afd8582611978565b865550611b70565b601f198416611b1387611a7c565b9650611b1e866117e8565b60005b82811015611b4657848901548255600182019150600185019450602081019050611b21565b86831015611b635784890154611b5f601f89168261195a565b8355505b6001600288020188555050505b5050505050505b56fe5468652050726f647563742069732046616b6520616e64206e6f742076657269666965645468652050726f64756374206973204f726967696e616c20616e64207665726966696564a264697066735822122097b1b6c749edf56f3c2e853349f2c2a27399fc3cca36796d414d22687c2fa7c264736f6c63430008110033",
  "immutableReferences": {},
  "source": "//SPDX-License-Identifier: MIT\r\npragma solidity ^0.8.7;\r\n\r\ncontract ProductIdentification {\r\n    address public owner;\r\n\r\n\r\n    // data type of manufacturer\r\n    struct manufacturer {\r\n        uint mID;\r\n        string companyName;\r\n        string companyLocation;\r\n    }\r\n\r\n    // data type of product\r\n    struct product {\r\n        uint productID;\r\n        string productName;\r\n        string pStatus;\r\n        uint price;\r\n        string currentOwner;\r\n        string[] ownersList;\r\n        uint manufactur;\r\n    }\r\n\r\n    product[] productArray;\r\n    manufacturer[] manufacturerArray;\r\n\r\n    function createManufacturer(uint _id, string memory _name, string memory _location) public returns (uint){\r\n        manufacturer memory newManufacturer;\r\n        newManufacturer.mID = _id;\r\n        newManufacturer.companyName = _name;\r\n        newManufacturer.companyLocation = _location;\r\n        manufacturerArray.push(newManufacturer);\r\n        return 1;\r\n    }\r\n\r\n\r\n    function createProduct(uint _id, string memory _name, string memory _pStatus, uint _price, string memory _pOwner, uint man) public returns (uint) {\r\n        bool flag = false;\r\n        for (uint i = 0; i < productArray.length; i++) {\r\n            if (_id == productArray[i].productID) {\r\n                flag = true;\r\n            }\r\n        }\r\n        require(flag == false, \"The product already exists!\");\r\n        product memory newProduct;\r\n        newProduct.productID = _id;\r\n        newProduct.productName = _name;\r\n        newProduct.pStatus = _pStatus;\r\n        newProduct.price = _price;\r\n        newProduct.currentOwner = _pOwner;\r\n        newProduct.manufactur = man;\r\n        productArray.push(newProduct);\r\n        return 1;\r\n    }\r\n\r\n    function changeOwner(uint _id, string memory _newOwner) public {\r\n        for (uint i = 0; i < productArray.length; i++) {\r\n            if (_id == productArray[i].productID) {\r\n                productArray[i].ownersList.push(productArray[i].currentOwner);\r\n                productArray[i].currentOwner = _newOwner;\r\n\r\n            }\r\n        }\r\n    }\r\n\r\n    function getOwner(uint _id) public view returns (string memory temp){\r\n        for (uint i = 0; i < productArray.length; i++) {\r\n            if (_id == productArray[i].productID) {\r\n                temp = productArray[i].currentOwner;\r\n            }\r\n        }\r\n        return temp;\r\n    }\r\n\r\n    function verifyProduct(uint _id) public view returns (string memory ver){\r\n        bool flag = false;\r\n        for (uint i = 0; i < productArray.length; i++) {\r\n            if (_id == productArray[i].productID) {\r\n                flag = true;\r\n            }\r\n        }\r\n        if (flag == true) {\r\n            ver = \"The Product is Original and verified\";\r\n        }\r\n        else {\r\n            ver = \"The Product is Fake and not verified\";\r\n        }\r\n        return ver;\r\n    }\r\n\r\n    function getProductDetails(uint _id) public view returns (product memory pDetails){\r\n        for (uint i = 0; i < productArray.length; i++) {\r\n            if (_id == productArray[i].productID) {\r\n                pDetails = productArray[i];\r\n                return pDetails;\r\n            }\r\n        }\r\n    }\r\n\r\n    function getManufacturerDetails(uint _id) public view returns (manufacturer memory mDetails){\r\n        for (uint i = 0; i < manufacturerArray.length; i++) {\r\n            if (_id == manufacturerArray[i].mID) {\r\n                mDetails = manufacturerArray[i];\r\n                return mDetails;\r\n            }\r\n        }\r\n    }\r\n\r\n    function getOwnerList(uint _id) public view returns (string[] memory owners){\r\n        for (uint i = 0; i < productArray.length; i++) {\r\n            if (_id == productArray[i].productID) {\r\n                owners = productArray[i].ownersList;\r\n                return owners;\r\n            }\r\n        }\r\n    }\r\n}\r\n",
  "sourcePath": "D:\\Assignment\\Semester 7\\Blockchain\\fake-product-identification-system\\webapp\\src\\blockchain\\contracts\\FakeProductIdentificationSystem.sol",
  "compiler": {
    "name": "solc",
    "version": "0.8.17+commit.8df45f5f.Emscripten.clang"
  },
  "schemaVersion": "3.4.11",
  "updatedAt": "2022-12-04T10:41:15.573Z",
  "networkType": "ethereum",
  "devdoc": {
    "kind": "dev",
    "methods": {},
    "version": 1
  },
  "userdoc": {
    "kind": "user",
    "methods": {},
    "version": 1
  }
}