{
  "contractName": "ProductIdentification",
  "abi": [
    {
      "inputs": [],
      "stateMutability": "payable",
      "type": "constructor",
      "payable": true
    },
    {
      "inputs": [
        {
          "internalType": "address",
          "name": "",
          "type": "address"
        }
      ],
      "name": "balance",
      "outputs": [
        {
          "internalType": "uint256",
          "name": "",
          "type": "uint256"
        }
      ],
      "stateMutability": "view",
      "type": "function",
      "constant": true
    },
    {
      "inputs": [],
      "name": "owner",
      "outputs": [
        {
          "internalType": "address",
          "name": "",
          "type": "address"
        }
      ],
      "stateMutability": "view",
      "type": "function",
      "constant": true
    },
    {
      "inputs": [
        {
          "internalType": "address",
          "name": "mAddress",
          "type": "address"
        },
        {
          "internalType": "string",
          "name": "cName",
          "type": "string"
        },
        {
          "internalType": "string",
          "name": "cLocation",
          "type": "string"
        }
      ],
      "name": "createManufacturer",
      "outputs": [
        {
          "internalType": "uint256",
          "name": "",
          "type": "uint256"
        }
      ],
      "stateMutability": "nonpayable",
      "type": "function"
    },
    {
      "inputs": [
        {
          "internalType": "string",
          "name": "_name",
          "type": "string"
        },
        {
          "internalType": "string",
          "name": "_desc",
          "type": "string"
        },
        {
          "internalType": "uint256",
          "name": "_price",
          "type": "uint256"
        }
      ],
      "name": "createProduct",
      "outputs": [
        {
          "internalType": "uint256",
          "name": "",
          "type": "uint256"
        }
      ],
      "stateMutability": "nonpayable",
      "type": "function"
    },
    {
      "inputs": [
        {
          "internalType": "uint256",
          "name": "_id",
          "type": "uint256"
        },
        {
          "internalType": "address",
          "name": "_newOwner",
          "type": "address"
        }
      ],
      "name": "changeOwner",
      "outputs": [
        {
          "internalType": "string",
          "name": "feedback",
          "type": "string"
        }
      ],
      "stateMutability": "nonpayable",
      "type": "function"
    },
    {
      "inputs": [
        {
          "internalType": "uint256",
          "name": "_id",
          "type": "uint256"
        }
      ],
      "name": "getOwner",
      "outputs": [
        {
          "internalType": "address",
          "name": "temp",
          "type": "address"
        }
      ],
      "stateMutability": "view",
      "type": "function",
      "constant": true
    },
    {
      "inputs": [
        {
          "internalType": "uint256",
          "name": "_id",
          "type": "uint256"
        }
      ],
      "name": "verifyProduct",
      "outputs": [
        {
          "internalType": "string",
          "name": "ver",
          "type": "string"
        },
        {
          "internalType": "address",
          "name": "currentOwner",
          "type": "address"
        },
        {
          "internalType": "address[]",
          "name": "owners",
          "type": "address[]"
        }
      ],
      "stateMutability": "payable",
      "type": "function",
      "payable": true
    },
    {
      "inputs": [
        {
          "internalType": "uint256",
          "name": "_id",
          "type": "uint256"
        }
      ],
      "name": "getProductDetails",
      "outputs": [
        {
          "components": [
            {
              "internalType": "uint256",
              "name": "productID",
              "type": "uint256"
            },
            {
              "internalType": "string",
              "name": "productName",
              "type": "string"
            },
            {
              "internalType": "string",
              "name": "pDescription",
              "type": "string"
            },
            {
              "internalType": "uint256",
              "name": "price",
              "type": "uint256"
            },
            {
              "internalType": "address",
              "name": "currentOwner",
              "type": "address"
            },
            {
              "internalType": "address[]",
              "name": "ownersList",
              "type": "address[]"
            },
            {
              "internalType": "address",
              "name": "manufactur",
              "type": "address"
            }
          ],
          "internalType": "struct ProductIdentification.product",
          "name": "pDetails",
          "type": "tuple"
        }
      ],
      "stateMutability": "view",
      "type": "function",
      "constant": true
    },
    {
      "inputs": [
        {
          "internalType": "address",
          "name": "_id",
          "type": "address"
        }
      ],
      "name": "getManufacturerDetails",
      "outputs": [
        {
          "components": [
            {
              "internalType": "address",
              "name": "mID",
              "type": "address"
            },
            {
              "internalType": "string",
              "name": "companyName",
              "type": "string"
            },
            {
              "internalType": "string",
              "name": "companyLocation",
              "type": "string"
            }
          ],
          "internalType": "struct ProductIdentification.manufacturer",
          "name": "mDetails",
          "type": "tuple"
        }
      ],
      "stateMutability": "view",
      "type": "function",
      "constant": true
    },
    {
      "inputs": [
        {
          "internalType": "uint256",
          "name": "_id",
          "type": "uint256"
        }
      ],
      "name": "getOwnerList",
      "outputs": [
        {
          "internalType": "address[]",
          "name": "owners",
          "type": "address[]"
        }
      ],
      "stateMutability": "view",
      "type": "function",
      "constant": true
    },
    {
      "inputs": [
        {
          "internalType": "address",
          "name": "_whoIs",
          "type": "address"
        }
      ],
      "name": "getIdentity",
      "outputs": [
        {
          "internalType": "string",
          "name": "identity",
          "type": "string"
        }
      ],
      "stateMutability": "view",
      "type": "function",
      "constant": true
    },
    {
      "inputs": [],
      "name": "getBalance",
      "outputs": [
        {
          "internalType": "uint256",
          "name": "",
          "type": "uint256"
        }
      ],
      "stateMutability": "view",
      "type": "function",
      "constant": true
    },
    {
      "inputs": [
        {
          "internalType": "address",
          "name": "whoIs",
          "type": "address"
        }
      ],
      "name": "getProductByManufacturer",
      "outputs": [
        {
          "components": [
            {
              "internalType": "uint256",
              "name": "productID",
              "type": "uint256"
            },
            {
              "internalType": "string",
              "name": "productName",
              "type": "string"
            },
            {
              "internalType": "string",
              "name": "pDescription",
              "type": "string"
            },
            {
              "internalType": "uint256",
              "name": "price",
              "type": "uint256"
            },
            {
              "internalType": "address",
              "name": "currentOwner",
              "type": "address"
            },
            {
              "internalType": "address[]",
              "name": "ownersList",
              "type": "address[]"
            },
            {
              "internalType": "address",
              "name": "manufactur",
              "type": "address"
            }
          ],
          "internalType": "struct ProductIdentification.product[]",
          "name": "",
          "type": "tuple[]"
        }
      ],
      "stateMutability": "payable",
      "type": "function",
      "payable": true
    },
    {
      "inputs": [
        {
          "internalType": "address",
          "name": "whoIs",
          "type": "address"
        }
      ],
      "name": "getProductByUser",
      "outputs": [
        {
          "components": [
            {
              "internalType": "uint256",
              "name": "productID",
              "type": "uint256"
            },
            {
              "internalType": "string",
              "name": "productName",
              "type": "string"
            },
            {
              "internalType": "string",
              "name": "pDescription",
              "type": "string"
            },
            {
              "internalType": "uint256",
              "name": "price",
              "type": "uint256"
            },
            {
              "internalType": "address",
              "name": "currentOwner",
              "type": "address"
            },
            {
              "internalType": "address[]",
              "name": "ownersList",
              "type": "address[]"
            },
            {
              "internalType": "address",
              "name": "manufactur",
              "type": "address"
            }
          ],
          "internalType": "struct ProductIdentification.product[]",
          "name": "productsOfUser",
          "type": "tuple[]"
        }
      ],
      "stateMutability": "payable",
      "type": "function",
      "payable": true
    },
    {
      "inputs": [
        {
          "internalType": "address",
          "name": "whoIs",
          "type": "address"
        }
      ],
      "name": "getOldProductByUser",
      "outputs": [
        {
          "components": [
            {
              "internalType": "uint256",
              "name": "productID",
              "type": "uint256"
            },
            {
              "internalType": "string",
              "name": "productName",
              "type": "string"
            },
            {
              "internalType": "string",
              "name": "pDescription",
              "type": "string"
            },
            {
              "internalType": "uint256",
              "name": "price",
              "type": "uint256"
            },
            {
              "internalType": "address",
              "name": "currentOwner",
              "type": "address"
            },
            {
              "internalType": "address[]",
              "name": "ownersList",
              "type": "address[]"
            },
            {
              "internalType": "address",
              "name": "manufactur",
              "type": "address"
            }
          ],
          "internalType": "struct ProductIdentification.product[]",
          "name": "soldProducts",
          "type": "tuple[]"
        }
      ],
      "stateMutability": "payable",
      "type": "function",
      "payable": true
    }
  ],
  "bytecode": "0x60806040526000600755336000806101000a81548173ffffffffffffffffffffffffffffffffffffffff021916908373ffffffffffffffffffffffffffffffffffffffff16021790555034600160008060009054906101000a900473ffffffffffffffffffffffffffffffffffffffff1673ffffffffffffffffffffffffffffffffffffffff1673ffffffffffffffffffffffffffffffffffffffff16815260200190815260200160002081905550613a25806100bd6000396000f3fe6080604052600436106100e85760003560e01c8063784796f71161008a578063c3c7fd5a11610059578063c3c7fd5a14610343578063c41a360a14610380578063d290b6a8146103bd578063e3d670d7146103ed576100e8565b8063784796f7146102615780638da5cb5b1461029e5780638dd95e99146102c9578063a142220914610306576100e8565b806332e872ce116100c657806332e872ce14610192578063524e8462146101c25780636447edf5146101f45780636813b53b14610224576100e8565b806312065fe0146100ed57806322713cc7146101185780632fea7b8114610155575b600080fd5b3480156100f957600080fd5b5061010261042a565b60405161010f91906128ce565b60405180910390f35b34801561012457600080fd5b5061013f600480360381019061013a919061295b565b610492565b60405161014c9190612a7e565b60405180910390f35b34801561016157600080fd5b5061017c6004803603810190610177919061295b565b6106eb565b6040516101899190612aea565b60405180910390f35b6101ac60048036038101906101a7919061295b565b6108a2565b6040516101b99190612d36565b60405180910390f35b6101dc60048036038101906101d79190612d84565b610d84565b6040516101eb93929190612e2f565b60405180910390f35b61020e6004803603810190610209919061295b565b61109c565b60405161021b9190612d36565b60405180910390f35b34801561023057600080fd5b5061024b60048036038101906102469190612d84565b6115e1565b6040516102589190612f1e565b60405180910390f35b34801561026d57600080fd5b5061028860048036038101906102839190612f40565b6118e6565b6040516102959190612aea565b60405180910390f35b3480156102aa57600080fd5b506102b3611b06565b6040516102c09190612f80565b60405180910390f35b3480156102d557600080fd5b506102f060048036038101906102eb9190612d84565b611b2a565b6040516102fd9190612f9b565b60405180910390f35b34801561031257600080fd5b5061032d600480360381019061032891906130f2565b611c34565b60405161033a91906128ce565b60405180910390f35b34801561034f57600080fd5b5061036a6004803603810190610365919061317d565b611f05565b60405161037791906128ce565b60405180910390f35b34801561038c57600080fd5b506103a760048036038101906103a29190612d84565b61217f565b6040516103b49190612f80565b60405180910390f35b6103d760048036038101906103d2919061295b565b612222565b6040516103e49190612d36565b60405180910390f35b3480156103f957600080fd5b50610414600480360381019061040f919061295b565b612704565b60405161042191906128ce565b60405180910390f35b6000600160008060009054906101000a900473ffffffffffffffffffffffffffffffffffffffff1673ffffffffffffffffffffffffffffffffffffffff1673ffffffffffffffffffffffffffffffffffffffff16815260200190815260200160002054905090565b61049a61271c565b60005b6006805490508110156106e457600681815481106104be576104bd613208565b5b906000526020600020906003020160000160009054906101000a900473ffffffffffffffffffffffffffffffffffffffff1673ffffffffffffffffffffffffffffffffffffffff168373ffffffffffffffffffffffffffffffffffffffff16036106d1576006818154811061053657610535613208565b5b90600052602060002090600302016040518060600160405290816000820160009054906101000a900473ffffffffffffffffffffffffffffffffffffffff1673ffffffffffffffffffffffffffffffffffffffff1673ffffffffffffffffffffffffffffffffffffffff1681526020016001820180546105b590613266565b80601f01602080910402602001604051908101604052809291908181526020018280546105e190613266565b801561062e5780601f106106035761010080835404028352916020019161062e565b820191906000526020600020905b81548152906001019060200180831161061157829003601f168201915b5050505050815260200160028201805461064790613266565b80601f016020809104026020016040519081016040528092919081815260200182805461067390613266565b80156106c05780601f10610695576101008083540402835291602001916106c0565b820191906000526020600020905b8154815290600101906020018083116106a357829003601f168201915b5050505050815250509150506106e6565b80806106dc906132c6565b91505061049d565b505b919050565b60606000808054906101000a900473ffffffffffffffffffffffffffffffffffffffff1673ffffffffffffffffffffffffffffffffffffffff168373ffffffffffffffffffffffffffffffffffffffff160361077e576040518060400160405280601981526020017f436f6e7472616374204f776e65722773204164647265737321000000000000008152509150600190505b60005b60068054905081101561085657600681815481106107a2576107a1613208565b5b906000526020600020906003020160000160009054906101000a900473ffffffffffffffffffffffffffffffffffffffff1673ffffffffffffffffffffffffffffffffffffffff168473ffffffffffffffffffffffffffffffffffffffff1603610843576040518060400160405280601781526020017f4d616e75666163747572657227732041646472657373210000000000000000008152509250600191505b808061084e906132c6565b915050610781565b50600015158115150361089c576040518060400160405280601881526020017f50726f64756374204f776e65722773204164647265737321000000000000000081525091505b50919050565b606060005b600280549050811015610ab2578273ffffffffffffffffffffffffffffffffffffffff16600282815481106108df576108de613208565b5b906000526020600020906007020160060160009054906101000a900473ffffffffffffffffffffffffffffffffffffffff1673ffffffffffffffffffffffffffffffffffffffff1603610a9f5760036002828154811061094257610941613208565b5b90600052602060002090600702019080600181540180825580915050600190039060005260206000209060070201600090919091909150600082015481600001556001820181600101908161099791906134d0565b50600282018160020190816109ac91906134d0565b50600382015481600301556004820160009054906101000a900473ffffffffffffffffffffffffffffffffffffffff168160040160006101000a81548173ffffffffffffffffffffffffffffffffffffffff021916908373ffffffffffffffffffffffffffffffffffffffff1602179055506005820181600501908054610a34929190612753565b506006820160009054906101000a900473ffffffffffffffffffffffffffffffffffffffff168160060160006101000a81548173ffffffffffffffffffffffffffffffffffffffff021916908373ffffffffffffffffffffffffffffffffffffffff16021790555050505b8080610aaa906132c6565b9150506108a7565b506003805480602002602001604051908101604052809291908181526020016000905b82821015610d7957838290600052602060002090600702016040518060e001604052908160008201548152602001600182018054610b1290613266565b80601f0160208091040260200160405190810160405280929190818152602001828054610b3e90613266565b8015610b8b5780601f10610b6057610100808354040283529160200191610b8b565b820191906000526020600020905b815481529060010190602001808311610b6e57829003601f168201915b50505050508152602001600282018054610ba490613266565b80601f0160208091040260200160405190810160405280929190818152602001828054610bd090613266565b8015610c1d5780601f10610bf257610100808354040283529160200191610c1d565b820191906000526020600020905b815481529060010190602001808311610c0057829003601f168201915b50505050508152602001600382015481526020016004820160009054906101000a900473ffffffffffffffffffffffffffffffffffffffff1673ffffffffffffffffffffffffffffffffffffffff1673ffffffffffffffffffffffffffffffffffffffff16815260200160058201805480602002602001604051908101604052809291908181526020018280548015610d0b57602002820191906000526020600020905b8160009054906101000a900473ffffffffffffffffffffffffffffffffffffffff1673ffffffffffffffffffffffffffffffffffffffff1681526020019060010190808311610cc1575b505050505081526020016006820160009054906101000a900473ffffffffffffffffffffffffffffffffffffffff1673ffffffffffffffffffffffffffffffffffffffff1673ffffffffffffffffffffffffffffffffffffffff168152505081526020019060010190610ad5565b505050509050919050565b606060006060670de0b6b3a7640000341015610dd5576040517f08c379a0000000000000000000000000000000000000000000000000000000008152600401610dcc9061362a565b60405180910390fd5b34600160003373ffffffffffffffffffffffffffffffffffffffff1673ffffffffffffffffffffffffffffffffffffffff16815260200190815260200160002081905550670de0b6b3a7640000600160008060009054906101000a900473ffffffffffffffffffffffffffffffffffffffff1673ffffffffffffffffffffffffffffffffffffffff1673ffffffffffffffffffffffffffffffffffffffff1681526020019081526020016000206000828254610e91919061364a565b92505081905550670de0b6b3a7640000600160003373ffffffffffffffffffffffffffffffffffffffff1673ffffffffffffffffffffffffffffffffffffffff1681526020019081526020016000206000828254610eef919061367e565b9250508190555060008060005b600280549050811015610f505760028181548110610f1d57610f1c613208565b5b9060005260206000209060070201600001548703610f3d57600192508091505b8080610f48906132c6565b915050610efc565b506001151582151503610f7d57604051806060016040528060238152602001613981602391399450610f99565b6040518060600160405280602881526020016139a46028913994505b8460028281548110610fae57610fad613208565b5b906000526020600020906007020160040160009054906101000a900473ffffffffffffffffffffffffffffffffffffffff1660028381548110610ff457610ff3613208565b5b90600052602060002090600702016005018080548060200260200160405190810160405280929190818152602001828054801561108657602002820191906000526020600020905b8160009054906101000a900473ffffffffffffffffffffffffffffffffffffffff1673ffffffffffffffffffffffffffffffffffffffff168152602001906001019080831161103c575b5050505050905094509450945050509193909250565b606060005b60028054905081101561130f5760005b600282815481106110c5576110c4613208565b5b9060005260206000209060070201600501805490508110156112fb578373ffffffffffffffffffffffffffffffffffffffff166002838154811061110c5761110b613208565b5b9060005260206000209060070201600501828154811061112f5761112e613208565b5b9060005260206000200160009054906101000a900473ffffffffffffffffffffffffffffffffffffffff1673ffffffffffffffffffffffffffffffffffffffff16036112e85760056002838154811061118b5761118a613208565b5b9060005260206000209060070201908060018154018082558091505060019003906000526020600020906007020160009091909190915060008201548160000155600182018160010190816111e091906134d0565b50600282018160020190816111f591906134d0565b50600382015481600301556004820160009054906101000a900473ffffffffffffffffffffffffffffffffffffffff168160040160006101000a81548173ffffffffffffffffffffffffffffffffffffffff021916908373ffffffffffffffffffffffffffffffffffffffff160217905550600582018160050190805461127d929190612753565b506006820160009054906101000a900473ffffffffffffffffffffffffffffffffffffffff168160060160006101000a81548173ffffffffffffffffffffffffffffffffffffffff021916908373ffffffffffffffffffffffffffffffffffffffff16021790555050505b80806112f3906132c6565b9150506110b1565b508080611307906132c6565b9150506110a1565b506005805480602002602001604051908101604052809291908181526020016000905b828210156115d657838290600052602060002090600702016040518060e00160405290816000820154815260200160018201805461136f90613266565b80601f016020809104026020016040519081016040528092919081815260200182805461139b90613266565b80156113e85780601f106113bd576101008083540402835291602001916113e8565b820191906000526020600020905b8154815290600101906020018083116113cb57829003601f168201915b5050505050815260200160028201805461140190613266565b80601f016020809104026020016040519081016040528092919081815260200182805461142d90613266565b801561147a5780601f1061144f5761010080835404028352916020019161147a565b820191906000526020600020905b81548152906001019060200180831161145d57829003601f168201915b50505050508152602001600382015481526020016004820160009054906101000a900473ffffffffffffffffffffffffffffffffffffffff1673ffffffffffffffffffffffffffffffffffffffff1673ffffffffffffffffffffffffffffffffffffffff1681526020016005820180548060200260200160405190810160405280929190818152602001828054801561156857602002820191906000526020600020905b8160009054906101000a900473ffffffffffffffffffffffffffffffffffffffff1673ffffffffffffffffffffffffffffffffffffffff168152602001906001019080831161151e575b505050505081526020016006820160009054906101000a900473ffffffffffffffffffffffffffffffffffffffff1673ffffffffffffffffffffffffffffffffffffffff1673ffffffffffffffffffffffffffffffffffffffff168152505081526020019060010190611332565b505050509050919050565b6115e96127a5565b60005b6002805490508110156118df576002818154811061160d5761160c613208565b5b90600052602060002090600702016000015483036118cc576002818154811061163957611638613208565b5b90600052602060002090600702016040518060e00160405290816000820154815260200160018201805461166c90613266565b80601f016020809104026020016040519081016040528092919081815260200182805461169890613266565b80156116e55780601f106116ba576101008083540402835291602001916116e5565b820191906000526020600020905b8154815290600101906020018083116116c857829003601f168201915b505050505081526020016002820180546116fe90613266565b80601f016020809104026020016040519081016040528092919081815260200182805461172a90613266565b80156117775780601f1061174c57610100808354040283529160200191611777565b820191906000526020600020905b81548152906001019060200180831161175a57829003601f168201915b50505050508152602001600382015481526020016004820160009054906101000a900473ffffffffffffffffffffffffffffffffffffffff1673ffffffffffffffffffffffffffffffffffffffff1673ffffffffffffffffffffffffffffffffffffffff1681526020016005820180548060200260200160405190810160405280929190818152602001828054801561186557602002820191906000526020600020905b8160009054906101000a900473ffffffffffffffffffffffffffffffffffffffff1673ffffffffffffffffffffffffffffffffffffffff168152602001906001019080831161181b575b505050505081526020016006820160009054906101000a900473ffffffffffffffffffffffffffffffffffffffff1673ffffffffffffffffffffffffffffffffffffffff1673ffffffffffffffffffffffffffffffffffffffff16815250509150506118e1565b80806118d7906132c6565b9150506115ec565b505b919050565b6060600061270f905060005b600280549050811015611946576002818154811061191357611912613208565b5b906000526020600020906007020160000154850361193357809150611946565b808061193e906132c6565b9150506118f2565b503373ffffffffffffffffffffffffffffffffffffffff166002828154811061197257611971613208565b5b906000526020600020906007020160040160009054906101000a900473ffffffffffffffffffffffffffffffffffffffff1673ffffffffffffffffffffffffffffffffffffffff16146119fa576040517f08c379a00000000000000000000000000000000000000000000000000000000081526004016119f1906136fe565b60405180910390fd5b60028181548110611a0e57611a0d613208565b5b9060005260206000209060070201600501339080600181540180825580915050600190039060005260206000200160009091909190916101000a81548173ffffffffffffffffffffffffffffffffffffffff021916908373ffffffffffffffffffffffffffffffffffffffff1602179055508260028281548110611a9557611a94613208565b5b906000526020600020906007020160040160006101000a81548173ffffffffffffffffffffffffffffffffffffffff021916908373ffffffffffffffffffffffffffffffffffffffff1602179055506040518060600160405280602481526020016139cc6024913991505092915050565b60008054906101000a900473ffffffffffffffffffffffffffffffffffffffff1681565b606060005b600280549050811015611c2d5760028181548110611b5057611b4f613208565b5b9060005260206000209060070201600001548303611c1a5760028181548110611b7c57611b7b613208565b5b9060005260206000209060070201600501805480602002602001604051908101604052809291908181526020018280548015611c0d57602002820191906000526020600020905b8160009054906101000a900473ffffffffffffffffffffffffffffffffffffffff1673ffffffffffffffffffffffffffffffffffffffff1681526020019060010190808311611bc3575b5050505050915050611c2f565b8080611c25906132c6565b915050611b2f565b505b919050565b6000806000905060005b600680549050811015611cdf573373ffffffffffffffffffffffffffffffffffffffff1660068281548110611c7657611c75613208565b5b906000526020600020906003020160000160009054906101000a900473ffffffffffffffffffffffffffffffffffffffff1673ffffffffffffffffffffffffffffffffffffffff1603611ccc5760019150611cdf565b8080611cd7906132c6565b915050611c3e565b506001151581151514611d27576040517f08c379a0000000000000000000000000000000000000000000000000000000008152600401611d1e90613790565b60405180910390fd5b611d2f6127a5565b6007548160000181815250508581602001819052508481604001819052508381606001818152505033816080019073ffffffffffffffffffffffffffffffffffffffff16908173ffffffffffffffffffffffffffffffffffffffff1681525050338160c0019073ffffffffffffffffffffffffffffffffffffffff16908173ffffffffffffffffffffffffffffffffffffffff16815250506002819080600181540180825580915050600190039060005260206000209060070201600090919091909150600082015181600001556020820151816001019081611e1291906137b0565b506040820151816002019081611e2891906137b0565b506060820151816003015560808201518160040160006101000a81548173ffffffffffffffffffffffffffffffffffffffff021916908373ffffffffffffffffffffffffffffffffffffffff16021790555060a0820151816005019080519060200190611e9692919061280e565b5060c08201518160060160006101000a81548173ffffffffffffffffffffffffffffffffffffffff021916908373ffffffffffffffffffffffffffffffffffffffff160217905550505060076000815480929190611ef3906132c6565b91905055506001925050509392505050565b60008060009054906101000a900473ffffffffffffffffffffffffffffffffffffffff1673ffffffffffffffffffffffffffffffffffffffff163373ffffffffffffffffffffffffffffffffffffffff1614611f96576040517f08c379a0000000000000000000000000000000000000000000000000000000008152600401611f8d906138f4565b60405180910390fd5b6000805b6006805490508110156120375760068181548110611fbb57611fba613208565b5b906000526020600020906003020160000160009054906101000a900473ffffffffffffffffffffffffffffffffffffffff1673ffffffffffffffffffffffffffffffffffffffff168673ffffffffffffffffffffffffffffffffffffffff160361202457600191505b808061202f906132c6565b915050611f9a565b50600015158115151461207f576040517f08c379a000000000000000000000000000000000000000000000000000000000815260040161207690613960565b60405180910390fd5b61208761271c565b85816000019073ffffffffffffffffffffffffffffffffffffffff16908173ffffffffffffffffffffffffffffffffffffffff1681525050848160200181905250838160400181905250600681908060018154018082558091505060019003906000526020600020906003020160009091909190915060008201518160000160006101000a81548173ffffffffffffffffffffffffffffffffffffffff021916908373ffffffffffffffffffffffffffffffffffffffff160217905550602082015181600101908161215991906137b0565b50604082015181600201908161216f91906137b0565b5050506001925050509392505050565b600080600090505b60028054905081101561221c57600281815481106121a8576121a7613208565b5b906000526020600020906007020160000154830361220957600281815481106121d4576121d3613208565b5b906000526020600020906007020160040160009054906101000a900473ffffffffffffffffffffffffffffffffffffffff1691505b8080612214906132c6565b915050612187565b50919050565b606060005b600280549050811015612432578273ffffffffffffffffffffffffffffffffffffffff166002828154811061225f5761225e613208565b5b906000526020600020906007020160040160009054906101000a900473ffffffffffffffffffffffffffffffffffffffff1673ffffffffffffffffffffffffffffffffffffffff160361241f576004600282815481106122c2576122c1613208565b5b90600052602060002090600702019080600181540180825580915050600190039060005260206000209060070201600090919091909150600082015481600001556001820181600101908161231791906134d0565b506002820181600201908161232c91906134d0565b50600382015481600301556004820160009054906101000a900473ffffffffffffffffffffffffffffffffffffffff168160040160006101000a81548173ffffffffffffffffffffffffffffffffffffffff021916908373ffffffffffffffffffffffffffffffffffffffff16021790555060058201816005019080546123b4929190612753565b506006820160009054906101000a900473ffffffffffffffffffffffffffffffffffffffff168160060160006101000a81548173ffffffffffffffffffffffffffffffffffffffff021916908373ffffffffffffffffffffffffffffffffffffffff16021790555050505b808061242a906132c6565b915050612227565b506004805480602002602001604051908101604052809291908181526020016000905b828210156126f957838290600052602060002090600702016040518060e00160405290816000820154815260200160018201805461249290613266565b80601f01602080910402602001604051908101604052809291908181526020018280546124be90613266565b801561250b5780601f106124e05761010080835404028352916020019161250b565b820191906000526020600020905b8154815290600101906020018083116124ee57829003601f168201915b5050505050815260200160028201805461252490613266565b80601f016020809104026020016040519081016040528092919081815260200182805461255090613266565b801561259d5780601f106125725761010080835404028352916020019161259d565b820191906000526020600020905b81548152906001019060200180831161258057829003601f168201915b50505050508152602001600382015481526020016004820160009054906101000a900473ffffffffffffffffffffffffffffffffffffffff1673ffffffffffffffffffffffffffffffffffffffff1673ffffffffffffffffffffffffffffffffffffffff1681526020016005820180548060200260200160405190810160405280929190818152602001828054801561268b57602002820191906000526020600020905b8160009054906101000a900473ffffffffffffffffffffffffffffffffffffffff1673ffffffffffffffffffffffffffffffffffffffff1681526020019060010190808311612641575b505050505081526020016006820160009054906101000a900473ffffffffffffffffffffffffffffffffffffffff1673ffffffffffffffffffffffffffffffffffffffff1673ffffffffffffffffffffffffffffffffffffffff168152505081526020019060010190612455565b505050509050919050565b60016020528060005260406000206000915090505481565b6040518060600160405280600073ffffffffffffffffffffffffffffffffffffffff16815260200160608152602001606081525090565b8280548282559060005260206000209081019282156127945760005260206000209182015b82811115612793578254825591600101919060010190612778565b5b5090506127a19190612898565b5090565b6040518060e0016040528060008152602001606081526020016060815260200160008152602001600073ffffffffffffffffffffffffffffffffffffffff16815260200160608152602001600073ffffffffffffffffffffffffffffffffffffffff1681525090565b828054828255906000526020600020908101928215612887579160200282015b828111156128865782518260006101000a81548173ffffffffffffffffffffffffffffffffffffffff021916908373ffffffffffffffffffffffffffffffffffffffff1602179055509160200191906001019061282e565b5b5090506128949190612898565b5090565b5b808211156128b1576000816000905550600101612899565b5090565b6000819050919050565b6128c8816128b5565b82525050565b60006020820190506128e360008301846128bf565b92915050565b6000604051905090565b600080fd5b600080fd5b600073ffffffffffffffffffffffffffffffffffffffff82169050919050565b6000612928826128fd565b9050919050565b6129388161291d565b811461294357600080fd5b50565b6000813590506129558161292f565b92915050565b600060208284031215612971576129706128f3565b5b600061297f84828501612946565b91505092915050565b6129918161291d565b82525050565b600081519050919050565b600082825260208201905092915050565b60005b838110156129d15780820151818401526020810190506129b6565b60008484015250505050565b6000601f19601f8301169050919050565b60006129f982612997565b612a0381856129a2565b9350612a138185602086016129b3565b612a1c816129dd565b840191505092915050565b6000606083016000830151612a3f6000860182612988565b5060208301518482036020860152612a5782826129ee565b91505060408301518482036040860152612a7182826129ee565b9150508091505092915050565b60006020820190508181036000830152612a988184612a27565b905092915050565b600082825260208201905092915050565b6000612abc82612997565b612ac68185612aa0565b9350612ad68185602086016129b3565b612adf816129dd565b840191505092915050565b60006020820190508181036000830152612b048184612ab1565b905092915050565b600081519050919050565b600082825260208201905092915050565b6000819050602082019050919050565b612b41816128b5565b82525050565b600081519050919050565b600082825260208201905092915050565b6000819050602082019050919050565b6000612b7f8383612988565b60208301905092915050565b6000602082019050919050565b6000612ba382612b47565b612bad8185612b52565b9350612bb883612b63565b8060005b83811015612be9578151612bd08882612b73565b9750612bdb83612b8b565b925050600181019050612bbc565b5085935050505092915050565b600060e083016000830151612c0e6000860182612b38565b5060208301518482036020860152612c2682826129ee565b91505060408301518482036040860152612c4082826129ee565b9150506060830151612c556060860182612b38565b506080830151612c686080860182612988565b5060a083015184820360a0860152612c808282612b98565b91505060c0830151612c9560c0860182612988565b508091505092915050565b6000612cac8383612bf6565b905092915050565b6000602082019050919050565b6000612ccc82612b0c565b612cd68185612b17565b935083602082028501612ce885612b28565b8060005b85811015612d245784840389528151612d058582612ca0565b9450612d1083612cb4565b925060208a01995050600181019050612cec565b50829750879550505050505092915050565b60006020820190508181036000830152612d508184612cc1565b905092915050565b612d61816128b5565b8114612d6c57600080fd5b50565b600081359050612d7e81612d58565b92915050565b600060208284031215612d9a57612d996128f3565b5b6000612da884828501612d6f565b91505092915050565b612dba8161291d565b82525050565b600082825260208201905092915050565b6000612ddc82612b47565b612de68185612dc0565b9350612df183612b63565b8060005b83811015612e22578151612e098882612b73565b9750612e1483612b8b565b925050600181019050612df5565b5085935050505092915050565b60006060820190508181036000830152612e498186612ab1565b9050612e586020830185612db1565b8181036040830152612e6a8184612dd1565b9050949350505050565b600060e083016000830151612e8c6000860182612b38565b5060208301518482036020860152612ea482826129ee565b91505060408301518482036040860152612ebe82826129ee565b9150506060830151612ed36060860182612b38565b506080830151612ee66080860182612988565b5060a083015184820360a0860152612efe8282612b98565b91505060c0830151612f1360c0860182612988565b508091505092915050565b60006020820190508181036000830152612f388184612e74565b905092915050565b60008060408385031215612f5757612f566128f3565b5b6000612f6585828601612d6f565b9250506020612f7685828601612946565b9150509250929050565b6000602082019050612f956000830184612db1565b92915050565b60006020820190508181036000830152612fb58184612dd1565b905092915050565b600080fd5b600080fd5b7f4e487b7100000000000000000000000000000000000000000000000000000000600052604160045260246000fd5b612fff826129dd565b810181811067ffffffffffffffff8211171561301e5761301d612fc7565b5b80604052505050565b60006130316128e9565b905061303d8282612ff6565b919050565b600067ffffffffffffffff82111561305d5761305c612fc7565b5b613066826129dd565b9050602081019050919050565b82818337600083830152505050565b600061309561309084613042565b613027565b9050828152602081018484840111156130b1576130b0612fc2565b5b6130bc848285613073565b509392505050565b600082601f8301126130d9576130d8612fbd565b5b81356130e9848260208601613082565b91505092915050565b60008060006060848603121561310b5761310a6128f3565b5b600084013567ffffffffffffffff811115613129576131286128f8565b5b613135868287016130c4565b935050602084013567ffffffffffffffff811115613156576131556128f8565b5b613162868287016130c4565b925050604061317386828701612d6f565b9150509250925092565b600080600060608486031215613196576131956128f3565b5b60006131a486828701612946565b935050602084013567ffffffffffffffff8111156131c5576131c46128f8565b5b6131d1868287016130c4565b925050604084013567ffffffffffffffff8111156131f2576131f16128f8565b5b6131fe868287016130c4565b9150509250925092565b7f4e487b7100000000000000000000000000000000000000000000000000000000600052603260045260246000fd5b7f4e487b7100000000000000000000000000000000000000000000000000000000600052602260045260246000fd5b6000600282049050600182168061327e57607f821691505b60208210810361329157613290613237565b5b50919050565b7f4e487b7100000000000000000000000000000000000000000000000000000000600052601160045260246000fd5b60006132d1826128b5565b91507fffffffffffffffffffffffffffffffffffffffffffffffffffffffffffffffff820361330357613302613297565b5b600182019050919050565b60008154905061331d81613266565b9050919050565b60008190508160005260206000209050919050565b60006020601f8301049050919050565b600082821b905092915050565b6000600883026133867fffffffffffffffffffffffffffffffffffffffffffffffffffffffffffffffff82613349565b6133908683613349565b95508019841693508086168417925050509392505050565b6000819050919050565b60006133cd6133c86133c3846128b5565b6133a8565b6128b5565b9050919050565b6000819050919050565b6133e7836133b2565b6133fb6133f3826133d4565b848454613356565b825550505050565b600090565b613410613403565b61341b8184846133de565b505050565b5b8181101561343f57613434600082613408565b600181019050613421565b5050565b601f8211156134845761345581613324565b61345e84613339565b8101602085101561346d578190505b61348161347985613339565b830182613420565b50505b505050565b600082821c905092915050565b60006134a760001984600802613489565b1980831691505092915050565b60006134c08383613496565b9150826002028217905092915050565b8181036134de5750506135b6565b6134e78261330e565b67ffffffffffffffff811115613500576134ff612fc7565b5b61350a8254613266565b613515828285613443565b6000601f8311600181146135445760008415613532578287015490505b61353c85826134b4565b8655506135af565b601f19841661355287613324565b965061355d86613324565b60005b8281101561358557848901548255600182019150600185019450602081019050613560565b868310156135a2578489015461359e601f891682613496565b8355505b6001600288020188555050505b5050505050505b565b7f596f75206e656564203120457468657220746f207665726966792070726f647560008201527f6374000000000000000000000000000000000000000000000000000000000000602082015250565b6000613614602283612aa0565b915061361f826135b8565b604082019050919050565b6000602082019050818103600083015261364381613607565b9050919050565b6000613655826128b5565b9150613660836128b5565b925082820190508082111561367857613677613297565b5b92915050565b6000613689826128b5565b9150613694836128b5565b92508282039050818111156136ac576136ab613297565b5b92915050565b7f596f7520646f6e74206f776e20746869732070726f6475637400000000000000600082015250565b60006136e8601983612aa0565b91506136f3826136b2565b602082019050919050565b60006020820190508181036000830152613717816136db565b9050919050565b7f4f6e6c7920746865206d616e7566616374757265722063616e2063726561746560008201527f207468652070726f647563747321000000000000000000000000000000000000602082015250565b600061377a602e83612aa0565b91506137858261371e565b604082019050919050565b600060208201905081810360008301526137a98161376d565b9050919050565b6137b982612997565b67ffffffffffffffff8111156137d2576137d1612fc7565b5b6137dc8254613266565b6137e7828285613443565b600060209050601f83116001811461381a5760008415613808578287015190505b61381285826134b4565b86555061387a565b601f19841661382886613324565b60005b828110156138505784890151825560018201915060208501945060208101905061382b565b8683101561386d5784890151613869601f891682613496565b8355505b6001600288020188555050505b505050505050565b7f4f6e6c792074686520636f6e7472616374206f776e65722063616e206164642060008201527f6d616e7566616374757265722100000000000000000000000000000000000000602082015250565b60006138de602d83612aa0565b91506138e982613882565b604082019050919050565b6000602082019050818103600083015261390d816138d1565b9050919050565b7f546865206d616e75666163747572657220616c72656164792065786973747321600082015250565b600061394a602083612aa0565b915061395582613914565b602082019050919050565b600060208201905081810360008301526139798161393d565b905091905056fe56657269666965642c2050726f6475637420666f756e6420696e206f7572206c6973744e6f742056657269666965642c2050726f6475637420696e206e6f7420696e206f7572206c6973744f776e657220686173206265656e207375636365737366756c6c79206368616e67656421a2646970667358221220d0ce06ab0c957d11e9b3d4d55a61bc06a5b4c4297e10e3e88e5bfc81c272da3264736f6c63430008110033",
  "immutableReferences": {},
  "source": "//SPDX-License-Identifier: MIT\r\npragma solidity ^0.8.7;\r\n\r\n//\"0xAb8483F64d9C6d1EcF9b849Ae677dD3315835cb2\", companyabc, islamabad\r\n\r\ncontract ProductIdentification{\r\n    address public owner;\r\n    mapping(address => uint) public balance;\r\n\r\n    // data type of manufacturer\r\n    struct manufacturer{\r\n        address mID;\r\n        string companyName;\r\n        string companyLocation;\r\n    }\r\n\r\n    // data type of product\r\n    struct product{\r\n        uint productID;\r\n        string productName;\r\n        string pDescription;\r\n        uint price;\r\n        address currentOwner;\r\n        address[] ownersList;\r\n        address manufactur;\r\n\r\n    }\r\n\r\n    product[] productArray;\r\n    product[] man_list_products;\r\n    product[] user_list_products;\r\n    product[] user_old_products;\r\n    manufacturer[] manufacturerArray;\r\n    uint productCount = 0;\r\n\r\n    constructor() payable{\r\n        owner = msg.sender;\r\n        balance[owner] = msg.value;\r\n    }\r\n\r\n    function createManufacturer(address mAddress, string memory cName, string memory cLocation) public returns (uint) {\r\n        require (msg.sender == owner, \"Only the contract owner can add manufacturer!\");\r\n        bool flag = false;\r\n        for (uint i=0; i<manufacturerArray.length; i++){\r\n            if (mAddress == manufacturerArray[i].mID){\r\n                flag = true;\r\n            }\r\n        }\r\n        require (flag == false, \"The manufacturer already exists!\");\r\n        manufacturer memory newManufacturer;\r\n        newManufacturer.mID = mAddress;\r\n        newManufacturer.companyName = cName;\r\n        newManufacturer.companyLocation = cLocation;\r\n        manufacturerArray.push(newManufacturer);\r\n        return 1;\r\n    }\r\n\r\n    function createProduct(string memory _name, string memory _desc, uint _price) public returns (uint) {\r\n        bool flag = false;\r\n        for (uint i=0; i<manufacturerArray.length; i++){\r\n            if(manufacturerArray[i].mID == msg.sender){\r\n                flag = true;\r\n                break;\r\n            }\r\n        }\r\n        require(flag == true, \"Only the manufacturer can create the products!\");\r\n        product memory newProduct;\r\n        newProduct.productID = productCount;\r\n        newProduct.productName = _name;\r\n        newProduct.pDescription = _desc;\r\n        newProduct.price = _price;\r\n        newProduct.currentOwner = msg.sender;\r\n        newProduct.manufactur = msg.sender;\r\n        productArray.push(newProduct);\r\n        productCount++;\r\n        return 1;\r\n    }\r\n\r\n    function changeOwner(uint _id, address  _newOwner) public returns (string memory feedback) {\r\n        uint index = 9999;\r\n        for (uint i=0; i<productArray.length; i++){\r\n            if (_id == productArray[i].productID){\r\n                index = i;\r\n                break;\r\n            }\r\n        }\r\n        require (productArray[index].currentOwner == msg.sender, \"You dont own this product\" );\r\n        productArray[index].ownersList.push(msg.sender);\r\n        productArray[index].currentOwner = _newOwner;\r\n        feedback = \"Owner has been successfully changed!\";\r\n        return feedback;\r\n    }\r\n\r\n    function getOwner(uint _id) public view returns (address temp){\r\n        for (uint i=0; i<productArray.length; i++){\r\n            if (_id == productArray[i].productID){\r\n                temp = productArray[i].currentOwner;\r\n            }\r\n        }\r\n        return temp;\r\n    }\r\n\r\n    function verifyProduct(uint _id) public payable returns (string memory ver, address currentOwner, address[] memory owners ){\r\n        require(msg.value >= 1 * (1 ether), \"You need 1 Ether to verify product\");\r\n        balance[msg.sender] = msg.value;\r\n        balance[owner] += 1 * (1 ether);\r\n        balance[msg.sender] -= 1 * (1 ether);\r\n        // msg.value -= 1 * (1 ether);\r\n        bool flag = false;\r\n        uint index = 0;\r\n        for (uint i=0; i<productArray.length; i++){\r\n            if (_id == productArray[i].productID){\r\n                flag = true;\r\n                index = i;\r\n            }\r\n        }\r\n        if (flag == true){\r\n            ver = \"Verified, Product found in our list\";\r\n        }\r\n        else{\r\n            ver = \"Not Verified, Product in not in our list\";\r\n        }\r\n        return (ver, productArray[index].currentOwner, productArray[index].ownersList);\r\n    }\r\n\r\n    function getProductDetails(uint _id) public view returns (product memory pDetails){\r\n        for (uint i=0; i<productArray.length; i++){\r\n            if (_id == productArray[i].productID){\r\n                pDetails = productArray[i];\r\n                return pDetails;\r\n            }\r\n        }\r\n    }\r\n\r\n    function getManufacturerDetails(address _id) public view returns (manufacturer memory mDetails){\r\n        for (uint i=0; i<manufacturerArray.length; i++){\r\n            if (_id == manufacturerArray[i].mID){\r\n                mDetails = manufacturerArray[i];\r\n                return mDetails;\r\n            }\r\n        }\r\n    }\r\n\r\n    function getOwnerList(uint _id) public view returns (address[] memory owners){\r\n        for (uint i=0; i<productArray.length; i++){\r\n            if (_id == productArray[i].productID){\r\n                owners = productArray[i].ownersList;\r\n                return owners;\r\n            }\r\n        }\r\n    }\r\n\r\n    function getIdentity(address _whoIs) public view returns (string memory identity){\r\n        bool flag = false;\r\n        if (_whoIs == owner){\r\n            identity = \"Contract Owner's Address!\";\r\n            flag = true;\r\n        }\r\n        for (uint i=0; i<manufacturerArray.length; i++){\r\n            if (_whoIs == manufacturerArray[i].mID){\r\n                identity = \"Manufacturer's Address!\";\r\n                flag = true;\r\n            }\r\n        }\r\n        if (flag==false){\r\n            identity = \"Product Owner's Address!\";\r\n        }\r\n        return identity;\r\n    }\r\n\r\n    function getBalance() public view returns(uint256){\r\n        return balance[owner];\r\n    }\r\n\r\n    function getProductByManufacturer(address whoIs) public payable returns(product[] memory){\r\n        for (uint i=0; i<productArray.length; i++){\r\n            if (productArray[i].manufactur == whoIs){\r\n                man_list_products.push(productArray[i]);\r\n            }\r\n        }\r\n        return man_list_products;\r\n    }\r\n\r\n    function getProductByUser(address whoIs) public payable returns(product[] memory productsOfUser){\r\n        for (uint i=0; i<productArray.length; i++){\r\n            if (productArray[i].currentOwner == whoIs){\r\n                user_list_products.push(productArray[i]);\r\n            }\r\n        }\r\n        productsOfUser = user_list_products;\r\n        return productsOfUser;\r\n    }\r\n\r\n    function getOldProductByUser(address whoIs) public payable returns(product[] memory soldProducts){\r\n        for (uint i=0; i<productArray.length; i++){\r\n            for(uint j=0; j<productArray[i].ownersList.length; j++){\r\n                if (productArray[i].ownersList[j] == whoIs){\r\n                    user_old_products.push(productArray[i]);\r\n                }\r\n            }\r\n\r\n        }\r\n        soldProducts = user_old_products;\r\n        return soldProducts;\r\n    }\r\n\r\n}\r\n",
  "sourcePath": "D:\\Assignment\\Semester 7\\Blockchain\\fake-product-identification-system\\src\\blockchain\\contracts\\FakeProductIdentificationSystem.sol",
  "compiler": {
    "name": "solc",
    "version": "0.8.17+commit.8df45f5f.Emscripten.clang"
  },
  "schemaVersion": "3.4.11",
  "updatedAt": "2022-12-05T15:49:38.784Z",
  "networkType": "ethereum",
  "devdoc": {
    "kind": "dev",
    "methods": {},
    "version": 1
  },
  "userdoc": {
    "kind": "user",
    "methods": {},
    "version": 1
  }
}